{
	"lottery.sol": {
		"Lottery": {
			"abi": [
				{
					"inputs": [
						{
							"internalType": "uint256",
							"name": "_purchaseDuration",
							"type": "uint256"
						},
						{
							"internalType": "uint256",
							"name": "_decideDuration",
							"type": "uint256"
						}
					],
					"stateMutability": "nonpayable",
					"type": "constructor"
				},
				{
					"inputs": [],
					"name": "claimPrize",
					"outputs": [],
					"stateMutability": "nonpayable",
					"type": "function"
				},
				{
					"inputs": [],
					"name": "decideEndTime",
					"outputs": [
						{
							"internalType": "uint256",
							"name": "",
							"type": "uint256"
						}
					],
					"stateMutability": "view",
					"type": "function"
				},
				{
					"inputs": [],
					"name": "finalRandomNumber",
					"outputs": [
						{
							"internalType": "uint256",
							"name": "",
							"type": "uint256"
						}
					],
					"stateMutability": "view",
					"type": "function"
				},
				{
					"inputs": [],
					"name": "getBalance",
					"outputs": [
						{
							"internalType": "uint256",
							"name": "",
							"type": "uint256"
						}
					],
					"stateMutability": "view",
					"type": "function"
				},
				{
					"inputs": [],
					"name": "pickWinner",
					"outputs": [],
					"stateMutability": "nonpayable",
					"type": "function"
				},
				{
					"inputs": [],
					"name": "purchaseEndTime",
					"outputs": [
						{
							"internalType": "uint256",
							"name": "",
							"type": "uint256"
						}
					],
					"stateMutability": "view",
					"type": "function"
				},
				{
					"inputs": [
						{
							"internalType": "bytes32",
							"name": "hash",
							"type": "bytes32"
						}
					],
					"name": "purchaseTicket",
					"outputs": [],
					"stateMutability": "payable",
					"type": "function"
				},
				{
					"inputs": [
						{
							"internalType": "uint256",
							"name": "number",
							"type": "uint256"
						}
					],
					"name": "revealNumber",
					"outputs": [],
					"stateMutability": "nonpayable",
					"type": "function"
				},
				{
					"inputs": [
						{
							"internalType": "address",
							"name": "",
							"type": "address"
						}
					],
					"name": "revealedNumbers",
					"outputs": [
						{
							"internalType": "uint256",
							"name": "",
							"type": "uint256"
						}
					],
					"stateMutability": "view",
					"type": "function"
				},
				{
					"inputs": [],
					"name": "ticketFee",
					"outputs": [
						{
							"internalType": "uint256",
							"name": "",
							"type": "uint256"
						}
					],
					"stateMutability": "view",
					"type": "function"
				},
				{
					"inputs": [
						{
							"internalType": "address",
							"name": "",
							"type": "address"
						}
					],
					"name": "userRNHashes",
					"outputs": [
						{
							"internalType": "bytes32",
							"name": "",
							"type": "bytes32"
						}
					],
					"stateMutability": "view",
					"type": "function"
				},
				{
					"inputs": [
						{
							"internalType": "uint256",
							"name": "",
							"type": "uint256"
						}
					],
					"name": "users",
					"outputs": [
						{
							"internalType": "address payable",
							"name": "",
							"type": "address"
						}
					],
					"stateMutability": "view",
					"type": "function"
				},
				{
					"inputs": [],
					"name": "winner",
					"outputs": [
						{
							"internalType": "address payable",
							"name": "",
							"type": "address"
						}
					],
					"stateMutability": "view",
					"type": "function"
				}
			],
			"devdoc": {
				"kind": "dev",
				"methods": {},
				"version": 1
			},
			"evm": {
				"assembly": "    /* \"lottery.sol\":172:3312  contract Lottery{... */\n  mstore(0x40, 0x80)\n    /* \"lottery.sol\":660:1035  constructor(uint _purchaseDuration, uint _decideDuration){... */\n  callvalue\n  dup1\n  iszero\n  tag_1\n  jumpi\n  0x00\n  dup1\n  revert\ntag_1:\n  pop\n  mload(0x40)\n  sub(codesize, bytecodeSize)\n  dup1\n  bytecodeSize\n  dup4\n  codecopy\n  dup2\n  dup2\n  add\n  0x40\n  mstore\n  dup2\n  add\n  swap1\n  tag_2\n  swap2\n  swap1\n  tag_3\n  jump\t// in\ntag_2:\n    /* \"lottery.sol\":744:754  msg.sender */\n  caller\n    /* \"lottery.sol\":728:733  admin */\n  0x01\n  0x00\n    /* \"lottery.sol\":728:755  admin = payable(msg.sender) */\n  0x0100\n  exp\n  dup2\n  sload\n  dup2\n  0xffffffffffffffffffffffffffffffffffffffff\n  mul\n  not\n  and\n  swap1\n  dup4\n  0xffffffffffffffffffffffffffffffffffffffff\n  and\n  mul\n  or\n  swap1\n  sstore\n  pop\n    /* \"lottery.sol\":766:793  ITicketFeeOracle  feeOracle */\n  0x00\n    /* \"lottery.sol\":813:855  0xAD39623a8Cd97185755310Cec8AFDb19Fe330D5A */\n  0xad39623a8cd97185755310cec8afdb19fe330d5a\n    /* \"lottery.sol\":766:856  ITicketFeeOracle  feeOracle = ITicketFeeOracle(0xAD39623a8Cd97185755310Cec8AFDb19Fe330D5A) */\n  swap1\n  pop\n    /* \"lottery.sol\":879:888  feeOracle */\n  dup1\n    /* \"lottery.sol\":879:901  feeOracle.getTicketFee */\n  0xffffffffffffffffffffffffffffffffffffffff\n  and\n  0xb1c19515\n    /* \"lottery.sol\":879:903  feeOracle.getTicketFee() */\n  mload(0x40)\n  dup2\n  0xffffffff\n  and\n  0xe0\n  shl\n  dup2\n  mstore\n  0x04\n  add\n  0x20\n  mload(0x40)\n  dup1\n  dup4\n  sub\n  dup2\n  dup7\n  gas\n  staticcall\n  iszero\n  dup1\n  iszero\n  tag_7\n  jumpi\n  returndatasize\n  0x00\n  dup1\n  returndatacopy\n  revert(0x00, returndatasize)\ntag_7:\n  pop\n  pop\n  pop\n  pop\n  mload(0x40)\n  returndatasize\n  not(0x1f)\n  0x1f\n  dup3\n  add\n  and\n  dup3\n  add\n  dup1\n  0x40\n  mstore\n  pop\n  dup2\n  add\n  swap1\n  tag_8\n  swap2\n  swap1\n  tag_9\n  jump\t// in\ntag_8:\n    /* \"lottery.sol\":867:876  ticketFee */\n  0x03\n    /* \"lottery.sol\":867:903  ticketFee = feeOracle.getTicketFee() */\n  dup2\n  swap1\n  sstore\n  pop\n    /* \"lottery.sol\":950:967  _purchaseDuration */\n  dup3\n    /* \"lottery.sol\":932:947  block.timestamp */\n  timestamp\n    /* \"lottery.sol\":932:967  block.timestamp + _purchaseDuration */\n  tag_10\n  swap2\n  swap1\n  tag_11\n  jump\t// in\ntag_10:\n    /* \"lottery.sol\":914:929  purchaseEndTime */\n  0x04\n    /* \"lottery.sol\":914:967  purchaseEndTime = block.timestamp + _purchaseDuration */\n  dup2\n  swap1\n  sstore\n  pop\n    /* \"lottery.sol\":1012:1027  _decideDuration */\n  dup2\n    /* \"lottery.sol\":994:1009  purchaseEndTime */\n  sload(0x04)\n    /* \"lottery.sol\":994:1027  purchaseEndTime + _decideDuration */\n  tag_12\n  swap2\n  swap1\n  tag_11\n  jump\t// in\ntag_12:\n    /* \"lottery.sol\":978:991  decideEndTime */\n  0x05\n    /* \"lottery.sol\":978:1027  decideEndTime = purchaseEndTime + _decideDuration */\n  dup2\n  swap1\n  sstore\n  pop\n    /* \"lottery.sol\":717:1035  {... */\n  pop\n    /* \"lottery.sol\":660:1035  constructor(uint _purchaseDuration, uint _decideDuration){... */\n  pop\n  pop\n    /* \"lottery.sol\":172:3312  contract Lottery{... */\n  jump(tag_13)\n    /* \"#utility.yul\":88:205   */\ntag_15:\n    /* \"#utility.yul\":197:198   */\n  0x00\n    /* \"#utility.yul\":194:195   */\n  dup1\n    /* \"#utility.yul\":187:199   */\n  revert\n    /* \"#utility.yul\":334:411   */\ntag_17:\n    /* \"#utility.yul\":371:378   */\n  0x00\n    /* \"#utility.yul\":400:405   */\n  dup2\n    /* \"#utility.yul\":389:405   */\n  swap1\n  pop\n    /* \"#utility.yul\":334:411   */\n  swap2\n  swap1\n  pop\n  jump\t// out\n    /* \"#utility.yul\":417:539   */\ntag_18:\n    /* \"#utility.yul\":490:514   */\n  tag_27\n    /* \"#utility.yul\":508:513   */\n  dup2\n    /* \"#utility.yul\":490:514   */\n  tag_17\n  jump\t// in\ntag_27:\n    /* \"#utility.yul\":483:488   */\n  dup2\n    /* \"#utility.yul\":480:515   */\n  eq\n    /* \"#utility.yul\":470:533   */\n  tag_28\n  jumpi\n    /* \"#utility.yul\":529:530   */\n  0x00\n    /* \"#utility.yul\":526:527   */\n  dup1\n    /* \"#utility.yul\":519:531   */\n  revert\n    /* \"#utility.yul\":470:533   */\ntag_28:\n    /* \"#utility.yul\":417:539   */\n  pop\n  jump\t// out\n    /* \"#utility.yul\":545:688   */\ntag_19:\n    /* \"#utility.yul\":602:607   */\n  0x00\n    /* \"#utility.yul\":633:639   */\n  dup2\n    /* \"#utility.yul\":627:640   */\n  mload\n    /* \"#utility.yul\":618:640   */\n  swap1\n  pop\n    /* \"#utility.yul\":649:682   */\n  tag_30\n    /* \"#utility.yul\":676:681   */\n  dup2\n    /* \"#utility.yul\":649:682   */\n  tag_18\n  jump\t// in\ntag_30:\n    /* \"#utility.yul\":545:688   */\n  swap3\n  swap2\n  pop\n  pop\n  jump\t// out\n    /* \"#utility.yul\":694:1201   */\ntag_3:\n    /* \"#utility.yul\":773:779   */\n  0x00\n    /* \"#utility.yul\":781:787   */\n  dup1\n    /* \"#utility.yul\":830:832   */\n  0x40\n    /* \"#utility.yul\":818:827   */\n  dup4\n    /* \"#utility.yul\":809:816   */\n  dup6\n    /* \"#utility.yul\":805:828   */\n  sub\n    /* \"#utility.yul\":801:833   */\n  slt\n    /* \"#utility.yul\":798:917   */\n  iszero\n  tag_32\n  jumpi\n    /* \"#utility.yul\":836:915   */\n  tag_33\n  tag_15\n  jump\t// in\ntag_33:\n    /* \"#utility.yul\":798:917   */\ntag_32:\n    /* \"#utility.yul\":956:957   */\n  0x00\n    /* \"#utility.yul\":981:1045   */\n  tag_34\n    /* \"#utility.yul\":1037:1044   */\n  dup6\n    /* \"#utility.yul\":1028:1034   */\n  dup3\n    /* \"#utility.yul\":1017:1026   */\n  dup7\n    /* \"#utility.yul\":1013:1035   */\n  add\n    /* \"#utility.yul\":981:1045   */\n  tag_19\n  jump\t// in\ntag_34:\n    /* \"#utility.yul\":971:1045   */\n  swap3\n  pop\n    /* \"#utility.yul\":927:1055   */\n  pop\n    /* \"#utility.yul\":1094:1096   */\n  0x20\n    /* \"#utility.yul\":1120:1184   */\n  tag_35\n    /* \"#utility.yul\":1176:1183   */\n  dup6\n    /* \"#utility.yul\":1167:1173   */\n  dup3\n    /* \"#utility.yul\":1156:1165   */\n  dup7\n    /* \"#utility.yul\":1152:1174   */\n  add\n    /* \"#utility.yul\":1120:1184   */\n  tag_19\n  jump\t// in\ntag_35:\n    /* \"#utility.yul\":1110:1184   */\n  swap2\n  pop\n    /* \"#utility.yul\":1065:1194   */\n  pop\n    /* \"#utility.yul\":694:1201   */\n  swap3\n  pop\n  swap3\n  swap1\n  pop\n  jump\t// out\n    /* \"#utility.yul\":1207:1558   */\ntag_9:\n    /* \"#utility.yul\":1277:1283   */\n  0x00\n    /* \"#utility.yul\":1326:1328   */\n  0x20\n    /* \"#utility.yul\":1314:1323   */\n  dup3\n    /* \"#utility.yul\":1305:1312   */\n  dup5\n    /* \"#utility.yul\":1301:1324   */\n  sub\n    /* \"#utility.yul\":1297:1329   */\n  slt\n    /* \"#utility.yul\":1294:1413   */\n  iszero\n  tag_37\n  jumpi\n    /* \"#utility.yul\":1332:1411   */\n  tag_38\n  tag_15\n  jump\t// in\ntag_38:\n    /* \"#utility.yul\":1294:1413   */\ntag_37:\n    /* \"#utility.yul\":1452:1453   */\n  0x00\n    /* \"#utility.yul\":1477:1541   */\n  tag_39\n    /* \"#utility.yul\":1533:1540   */\n  dup5\n    /* \"#utility.yul\":1524:1530   */\n  dup3\n    /* \"#utility.yul\":1513:1522   */\n  dup6\n    /* \"#utility.yul\":1509:1531   */\n  add\n    /* \"#utility.yul\":1477:1541   */\n  tag_19\n  jump\t// in\ntag_39:\n    /* \"#utility.yul\":1467:1541   */\n  swap2\n  pop\n    /* \"#utility.yul\":1423:1551   */\n  pop\n    /* \"#utility.yul\":1207:1558   */\n  swap3\n  swap2\n  pop\n  pop\n  jump\t// out\n    /* \"#utility.yul\":1564:1744   */\ntag_20:\n    /* \"#utility.yul\":1612:1689   */\n  0x4e487b7100000000000000000000000000000000000000000000000000000000\n    /* \"#utility.yul\":1609:1610   */\n  0x00\n    /* \"#utility.yul\":1602:1690   */\n  mstore\n    /* \"#utility.yul\":1709:1713   */\n  0x11\n    /* \"#utility.yul\":1706:1707   */\n  0x04\n    /* \"#utility.yul\":1699:1714   */\n  mstore\n    /* \"#utility.yul\":1733:1737   */\n  0x24\n    /* \"#utility.yul\":1730:1731   */\n  0x00\n    /* \"#utility.yul\":1723:1738   */\n  revert\n    /* \"#utility.yul\":1750:1941   */\ntag_11:\n    /* \"#utility.yul\":1790:1793   */\n  0x00\n    /* \"#utility.yul\":1809:1829   */\n  tag_42\n    /* \"#utility.yul\":1827:1828   */\n  dup3\n    /* \"#utility.yul\":1809:1829   */\n  tag_17\n  jump\t// in\ntag_42:\n    /* \"#utility.yul\":1804:1829   */\n  swap2\n  pop\n    /* \"#utility.yul\":1843:1863   */\n  tag_43\n    /* \"#utility.yul\":1861:1862   */\n  dup4\n    /* \"#utility.yul\":1843:1863   */\n  tag_17\n  jump\t// in\ntag_43:\n    /* \"#utility.yul\":1838:1863   */\n  swap3\n  pop\n    /* \"#utility.yul\":1886:1887   */\n  dup3\n    /* \"#utility.yul\":1883:1884   */\n  dup3\n    /* \"#utility.yul\":1879:1888   */\n  add\n    /* \"#utility.yul\":1872:1888   */\n  swap1\n  pop\n    /* \"#utility.yul\":1907:1910   */\n  dup1\n    /* \"#utility.yul\":1904:1905   */\n  dup3\n    /* \"#utility.yul\":1901:1911   */\n  gt\n    /* \"#utility.yul\":1898:1934   */\n  iszero\n  tag_44\n  jumpi\n    /* \"#utility.yul\":1914:1932   */\n  tag_45\n  tag_20\n  jump\t// in\ntag_45:\n    /* \"#utility.yul\":1898:1934   */\ntag_44:\n    /* \"#utility.yul\":1750:1941   */\n  swap3\n  swap2\n  pop\n  pop\n  jump\t// out\n    /* \"lottery.sol\":172:3312  contract Lottery{... */\ntag_13:\n  dataSize(sub_0)\n  dup1\n  dataOffset(sub_0)\n  0x00\n  codecopy\n  0x00\n  return\nstop\n\nsub_0: assembly {\n        /* \"lottery.sol\":172:3312  contract Lottery{... */\n      mstore(0x40, 0x80)\n      jumpi(tag_1, lt(calldatasize, 0x04))\n      shr(0xe0, calldataload(0x00))\n      dup1\n      0x4018f256\n      gt\n      tag_15\n      jumpi\n      dup1\n      0x872fd939\n      gt\n      tag_16\n      jumpi\n      dup1\n      0x872fd939\n      eq\n      tag_11\n      jumpi\n      dup1\n      0xa0994c47\n      eq\n      tag_12\n      jumpi\n      dup1\n      0xdfbf53ae\n      eq\n      tag_13\n      jumpi\n      dup1\n      0xfe7d567d\n      eq\n      tag_14\n      jumpi\n      jump(tag_1)\n    tag_16:\n      dup1\n      0x4018f256\n      eq\n      tag_8\n      jumpi\n      dup1\n      0x5d495aea\n      eq\n      tag_9\n      jumpi\n      dup1\n      0x70740ac9\n      eq\n      tag_10\n      jumpi\n      jump(tag_1)\n    tag_15:\n      dup1\n      0x09736bc3\n      eq\n      tag_2\n      jumpi\n      dup1\n      0x11676fed\n      eq\n      tag_3\n      jumpi\n      dup1\n      0x12065fe0\n      eq\n      tag_4\n      jumpi\n      dup1\n      0x129a4202\n      eq\n      tag_5\n      jumpi\n      dup1\n      0x2f0e23fb\n      eq\n      tag_6\n      jumpi\n      dup1\n      0x365b98b2\n      eq\n      tag_7\n      jumpi\n    tag_1:\n      0x00\n      dup1\n      revert\n        /* \"lottery.sol\":412:437  uint public decideEndTime */\n    tag_2:\n      callvalue\n      dup1\n      iszero\n      tag_17\n      jumpi\n      0x00\n      dup1\n      revert\n    tag_17:\n      pop\n      tag_18\n      tag_19\n      jump\t// in\n    tag_18:\n      mload(0x40)\n      tag_20\n      swap2\n      swap1\n      tag_21\n      jump\t// in\n    tag_20:\n      mload(0x40)\n      dup1\n      swap2\n      sub\n      swap1\n      return\n        /* \"lottery.sol\":614:646  uint256 public finalRandomNumber */\n    tag_3:\n      callvalue\n      dup1\n      iszero\n      tag_22\n      jumpi\n      0x00\n      dup1\n      revert\n    tag_22:\n      pop\n      tag_23\n      tag_24\n      jump\t// in\n    tag_23:\n      mload(0x40)\n      tag_25\n      swap2\n      swap1\n      tag_21\n      jump\t// in\n    tag_25:\n      mload(0x40)\n      dup1\n      swap2\n      sub\n      swap1\n      return\n        /* \"lottery.sol\":1076:1171  function getBalance() view public returns(uint){... */\n    tag_4:\n      callvalue\n      dup1\n      iszero\n      tag_26\n      jumpi\n      0x00\n      dup1\n      revert\n    tag_26:\n      pop\n      tag_27\n      tag_28\n      jump\t// in\n    tag_27:\n      mload(0x40)\n      tag_29\n      swap2\n      swap1\n      tag_21\n      jump\t// in\n    tag_29:\n      mload(0x40)\n      dup1\n      swap2\n      sub\n      swap1\n      return\n        /* \"lottery.sol\":1211:1932  function purchaseTicket(bytes32 hash) external payable {... */\n    tag_5:\n      tag_30\n      0x04\n      dup1\n      calldatasize\n      sub\n      dup2\n      add\n      swap1\n      tag_31\n      swap2\n      swap1\n      tag_32\n      jump\t// in\n    tag_31:\n      tag_33\n      jump\t// in\n    tag_30:\n      stop\n        /* \"lottery.sol\":378:405  uint public purchaseEndTime */\n    tag_6:\n      callvalue\n      dup1\n      iszero\n      tag_34\n      jumpi\n      0x00\n      dup1\n      revert\n    tag_34:\n      pop\n      tag_35\n      tag_36\n      jump\t// in\n    tag_35:\n      mload(0x40)\n      tag_37\n      swap2\n      swap1\n      tag_21\n      jump\t// in\n    tag_37:\n      mload(0x40)\n      dup1\n      swap2\n      sub\n      swap1\n      return\n        /* \"lottery.sol\":197:227  address payable[] public users */\n    tag_7:\n      callvalue\n      dup1\n      iszero\n      tag_38\n      jumpi\n      0x00\n      dup1\n      revert\n    tag_38:\n      pop\n      tag_39\n      0x04\n      dup1\n      calldatasize\n      sub\n      dup2\n      add\n      swap1\n      tag_40\n      swap2\n      swap1\n      tag_41\n      jump\t// in\n    tag_40:\n      tag_42\n      jump\t// in\n    tag_39:\n      mload(0x40)\n      tag_43\n      swap2\n      swap1\n      tag_44\n      jump\t// in\n    tag_43:\n      mload(0x40)\n      dup1\n      swap2\n      sub\n      swap1\n      return\n        /* \"lottery.sol\":446:494  mapping (address => bytes32) public userRNHashes */\n    tag_8:\n      callvalue\n      dup1\n      iszero\n      tag_45\n      jumpi\n      0x00\n      dup1\n      revert\n    tag_45:\n      pop\n      tag_46\n      0x04\n      dup1\n      calldatasize\n      sub\n      dup2\n      add\n      swap1\n      tag_47\n      swap2\n      swap1\n      tag_48\n      jump\t// in\n    tag_47:\n      tag_49\n      jump\t// in\n    tag_46:\n      mload(0x40)\n      tag_50\n      swap2\n      swap1\n      tag_51\n      jump\t// in\n    tag_50:\n      mload(0x40)\n      dup1\n      swap2\n      sub\n      swap1\n      return\n        /* \"lottery.sol\":2485:2919  function pickWinner() external {... */\n    tag_9:\n      callvalue\n      dup1\n      iszero\n      tag_52\n      jumpi\n      0x00\n      dup1\n      revert\n    tag_52:\n      pop\n      tag_53\n      tag_54\n      jump\t// in\n    tag_53:\n      stop\n        /* \"lottery.sol\":2925:3143  function claimPrize() external {... */\n    tag_10:\n      callvalue\n      dup1\n      iszero\n      tag_55\n      jumpi\n      0x00\n      dup1\n      revert\n    tag_55:\n      pop\n      tag_56\n      tag_57\n      jump\t// in\n    tag_56:\n      stop\n        /* \"lottery.sol\":530:578  mapping (address => uint) public revealedNumbers */\n    tag_11:\n      callvalue\n      dup1\n      iszero\n      tag_58\n      jumpi\n      0x00\n      dup1\n      revert\n    tag_58:\n      pop\n      tag_59\n      0x04\n      dup1\n      calldatasize\n      sub\n      dup2\n      add\n      swap1\n      tag_60\n      swap2\n      swap1\n      tag_48\n      jump\t// in\n    tag_60:\n      tag_61\n      jump\t// in\n    tag_59:\n      mload(0x40)\n      tag_62\n      swap2\n      swap1\n      tag_21\n      jump\t// in\n    tag_62:\n      mload(0x40)\n      dup1\n      swap2\n      sub\n      swap1\n      return\n        /* \"lottery.sol\":350:371  uint public ticketFee */\n    tag_12:\n      callvalue\n      dup1\n      iszero\n      tag_63\n      jumpi\n      0x00\n      dup1\n      revert\n    tag_63:\n      pop\n      tag_64\n      tag_65\n      jump\t// in\n    tag_64:\n      mload(0x40)\n      tag_66\n      swap2\n      swap1\n      tag_21\n      jump\t// in\n    tag_66:\n      mload(0x40)\n      dup1\n      swap2\n      sub\n      swap1\n      return\n        /* \"lottery.sol\":288:317  address payable public winner */\n    tag_13:\n      callvalue\n      dup1\n      iszero\n      tag_67\n      jumpi\n      0x00\n      dup1\n      revert\n    tag_67:\n      pop\n      tag_68\n      tag_69\n      jump\t// in\n    tag_68:\n      mload(0x40)\n      tag_70\n      swap2\n      swap1\n      tag_44\n      jump\t// in\n    tag_70:\n      mload(0x40)\n      dup1\n      swap2\n      sub\n      swap1\n      return\n        /* \"lottery.sol\":1971:2426  function revealNumber(uint number) external {... */\n    tag_14:\n      callvalue\n      dup1\n      iszero\n      tag_71\n      jumpi\n      0x00\n      dup1\n      revert\n    tag_71:\n      pop\n      tag_72\n      0x04\n      dup1\n      calldatasize\n      sub\n      dup2\n      add\n      swap1\n      tag_73\n      swap2\n      swap1\n      tag_41\n      jump\t// in\n    tag_73:\n      tag_74\n      jump\t// in\n    tag_72:\n      stop\n        /* \"lottery.sol\":412:437  uint public decideEndTime */\n    tag_19:\n      sload(0x05)\n      dup2\n      jump\t// out\n        /* \"lottery.sol\":614:646  uint256 public finalRandomNumber */\n    tag_24:\n      sload(0x08)\n      dup2\n      jump\t// out\n        /* \"lottery.sol\":1076:1171  function getBalance() view public returns(uint){... */\n    tag_28:\n        /* \"lottery.sol\":1118:1122  uint */\n      0x00\n        /* \"lottery.sol\":1141:1162  address(this).balance */\n      selfbalance\n        /* \"lottery.sol\":1134:1162  return address(this).balance */\n      swap1\n      pop\n        /* \"lottery.sol\":1076:1171  function getBalance() view public returns(uint){... */\n      swap1\n      jump\t// out\n        /* \"lottery.sol\":1211:1932  function purchaseTicket(bytes32 hash) external payable {... */\n    tag_33:\n        /* \"lottery.sol\":1299:1304  admin */\n      0x01\n      0x00\n      swap1\n      sload\n      swap1\n      0x0100\n      exp\n      swap1\n      div\n      0xffffffffffffffffffffffffffffffffffffffff\n      and\n        /* \"lottery.sol\":1285:1304  msg.sender != admin */\n      0xffffffffffffffffffffffffffffffffffffffff\n      and\n        /* \"lottery.sol\":1285:1295  msg.sender */\n      caller\n        /* \"lottery.sol\":1285:1304  msg.sender != admin */\n      0xffffffffffffffffffffffffffffffffffffffff\n      and\n      sub\n        /* \"lottery.sol\":1277:1327  require(msg.sender != admin, \"Owner cannot play!\") */\n      tag_77\n      jumpi\n      mload(0x40)\n      0x08c379a000000000000000000000000000000000000000000000000000000000\n      dup2\n      mstore\n      0x04\n      add\n      tag_78\n      swap1\n      tag_79\n      jump\t// in\n    tag_78:\n      mload(0x40)\n      dup1\n      swap2\n      sub\n      swap1\n      revert\n    tag_77:\n        /* \"lottery.sol\":1364:1379  purchaseEndTime */\n      sload(0x04)\n        /* \"lottery.sol\":1346:1361  block.timestamp */\n      timestamp\n        /* \"lottery.sol\":1346:1379  block.timestamp < purchaseEndTime */\n      lt\n        /* \"lottery.sol\":1338:1420  require(block.timestamp < purchaseEndTime, \"Lottery contribution period is over!\") */\n      tag_80\n      jumpi\n      mload(0x40)\n      0x08c379a000000000000000000000000000000000000000000000000000000000\n      dup2\n      mstore\n      0x04\n      add\n      tag_81\n      swap1\n      tag_82\n      jump\t// in\n    tag_81:\n      mload(0x40)\n      dup1\n      swap2\n      sub\n      swap1\n      revert\n    tag_80:\n        /* \"lottery.sol\":1452:1461  ticketFee */\n      sload(0x03)\n        /* \"lottery.sol\":1439:1448  msg.value */\n      callvalue\n        /* \"lottery.sol\":1439:1461  msg.value >= ticketFee */\n      lt\n      iszero\n        /* \"lottery.sol\":1431:1492  require(msg.value >= ticketFee, \"Ticket fee is insufficient\") */\n      tag_83\n      jumpi\n      mload(0x40)\n      0x08c379a000000000000000000000000000000000000000000000000000000000\n      dup2\n      mstore\n      0x04\n      add\n      tag_84\n      swap1\n      tag_85\n      jump\t// in\n    tag_84:\n      mload(0x40)\n      dup1\n      swap2\n      sub\n      swap1\n      revert\n    tag_83:\n        /* \"lottery.sol\":1539:1540  0 */\n      0x00\n        /* \"lottery.sol\":1511:1540  userRNHashes[msg.sender] == 0 */\n      dup1\n      shl\n        /* \"lottery.sol\":1511:1523  userRNHashes */\n      0x06\n        /* \"lottery.sol\":1511:1535  userRNHashes[msg.sender] */\n      0x00\n        /* \"lottery.sol\":1524:1534  msg.sender */\n      caller\n        /* \"lottery.sol\":1511:1535  userRNHashes[msg.sender] */\n      0xffffffffffffffffffffffffffffffffffffffff\n      and\n      0xffffffffffffffffffffffffffffffffffffffff\n      and\n      dup2\n      mstore\n      0x20\n      add\n      swap1\n      dup2\n      mstore\n      0x20\n      add\n      0x00\n      keccak256\n      sload\n        /* \"lottery.sol\":1511:1540  userRNHashes[msg.sender] == 0 */\n      eq\n        /* \"lottery.sol\":1503:1571  require(userRNHashes[msg.sender] == 0, \"Already purchased a ticket\") */\n      tag_86\n      jumpi\n      mload(0x40)\n      0x08c379a000000000000000000000000000000000000000000000000000000000\n      dup2\n      mstore\n      0x04\n      add\n      tag_87\n      swap1\n      tag_88\n      jump\t// in\n    tag_87:\n      mload(0x40)\n      dup1\n      swap2\n      sub\n      swap1\n      revert\n    tag_86:\n        /* \"lottery.sol\":1606:1607  0 */\n      0x00\n        /* \"lottery.sol\":1598:1608  bytes32(0) */\n      dup1\n      shl\n        /* \"lottery.sol\":1590:1594  hash */\n      dup2\n        /* \"lottery.sol\":1590:1608  hash != bytes32(0) */\n      sub\n        /* \"lottery.sol\":1582:1650  require(hash != bytes32(0), \"Hash must be provided to buy a ticket\") */\n      tag_89\n      jumpi\n      mload(0x40)\n      0x08c379a000000000000000000000000000000000000000000000000000000000\n      dup2\n      mstore\n      0x04\n      add\n      tag_90\n      swap1\n      tag_91\n      jump\t// in\n    tag_90:\n      mload(0x40)\n      dup1\n      swap2\n      sub\n      swap1\n      revert\n    tag_89:\n        /* \"lottery.sol\":1723:1732  ticketFee */\n      sload(0x03)\n        /* \"lottery.sol\":1711:1720  msg.value */\n      callvalue\n        /* \"lottery.sol\":1711:1732  msg.value > ticketFee */\n      gt\n        /* \"lottery.sol\":1707:1839  if (msg.value > ticketFee) {... */\n      iszero\n      tag_92\n      jumpi\n        /* \"lottery.sol\":1745:1756  uint excess */\n      0x00\n        /* \"lottery.sol\":1771:1780  ticketFee */\n      sload(0x03)\n        /* \"lottery.sol\":1759:1768  msg.value */\n      callvalue\n        /* \"lottery.sol\":1759:1780  msg.value - ticketFee */\n      tag_93\n      swap2\n      swap1\n      tag_94\n      jump\t// in\n    tag_93:\n        /* \"lottery.sol\":1745:1780  uint excess = msg.value - ticketFee */\n      swap1\n      pop\n        /* \"lottery.sol\":1799:1809  msg.sender */\n      caller\n        /* \"lottery.sol\":1791:1819  payable(msg.sender).transfer */\n      0xffffffffffffffffffffffffffffffffffffffff\n      and\n        /* \"lottery.sol\":1791:1827  payable(msg.sender).transfer(excess) */\n      0x08fc\n        /* \"lottery.sol\":1820:1826  excess */\n      dup3\n        /* \"lottery.sol\":1791:1827  payable(msg.sender).transfer(excess) */\n      swap1\n      dup2\n      iszero\n      mul\n      swap1\n      mload(0x40)\n      0x00\n      mload(0x40)\n      dup1\n      dup4\n      sub\n      dup2\n      dup6\n      dup9\n      dup9\n      call\n      swap4\n      pop\n      pop\n      pop\n      pop\n      iszero\n      dup1\n      iszero\n      tag_96\n      jumpi\n      returndatasize\n      0x00\n      dup1\n      returndatacopy\n      revert(0x00, returndatasize)\n    tag_96:\n      pop\n        /* \"lottery.sol\":1734:1839  {... */\n      pop\n        /* \"lottery.sol\":1707:1839  if (msg.value > ticketFee) {... */\n    tag_92:\n        /* \"lottery.sol\":1878:1882  hash */\n      dup1\n        /* \"lottery.sol\":1851:1863  userRNHashes */\n      0x06\n        /* \"lottery.sol\":1851:1875  userRNHashes[msg.sender] */\n      0x00\n        /* \"lottery.sol\":1864:1874  msg.sender */\n      caller\n        /* \"lottery.sol\":1851:1875  userRNHashes[msg.sender] */\n      0xffffffffffffffffffffffffffffffffffffffff\n      and\n      0xffffffffffffffffffffffffffffffffffffffff\n      and\n      dup2\n      mstore\n      0x20\n      add\n      swap1\n      dup2\n      mstore\n      0x20\n      add\n      0x00\n      keccak256\n        /* \"lottery.sol\":1851:1882  userRNHashes[msg.sender] = hash */\n      dup2\n      swap1\n      sstore\n      pop\n        /* \"lottery.sol\":1893:1898  users */\n      0x00\n        /* \"lottery.sol\":1912:1922  msg.sender */\n      caller\n        /* \"lottery.sol\":1893:1924  users.push(payable(msg.sender)) */\n      swap1\n      dup1\n      0x01\n      dup2\n      sload\n      add\n      dup1\n      dup3\n      sstore\n      dup1\n      swap2\n      pop\n      pop\n      0x01\n      swap1\n      sub\n      swap1\n      0x00\n      mstore\n      keccak256(0x00, 0x20)\n      add\n      0x00\n      swap1\n      swap2\n      swap1\n      swap2\n      swap1\n      swap2\n      0x0100\n      exp\n      dup2\n      sload\n      dup2\n      0xffffffffffffffffffffffffffffffffffffffff\n      mul\n      not\n      and\n      swap1\n      dup4\n      0xffffffffffffffffffffffffffffffffffffffff\n      and\n      mul\n      or\n      swap1\n      sstore\n      pop\n        /* \"lottery.sol\":1211:1932  function purchaseTicket(bytes32 hash) external payable {... */\n      pop\n      jump\t// out\n        /* \"lottery.sol\":378:405  uint public purchaseEndTime */\n    tag_36:\n      sload(0x04)\n      dup2\n      jump\t// out\n        /* \"lottery.sol\":197:227  address payable[] public users */\n    tag_42:\n      0x00\n      dup2\n      dup2\n      sload\n      dup2\n      lt\n      tag_98\n      jumpi\n      0x00\n      dup1\n      revert\n    tag_98:\n      swap1\n      0x00\n      mstore\n      keccak256(0x00, 0x20)\n      add\n      0x00\n      swap2\n      pop\n      sload\n      swap1\n      0x0100\n      exp\n      swap1\n      div\n      0xffffffffffffffffffffffffffffffffffffffff\n      and\n      dup2\n      jump\t// out\n        /* \"lottery.sol\":446:494  mapping (address => bytes32) public userRNHashes */\n    tag_49:\n      mstore(0x20, 0x06)\n      dup1\n      0x00\n      mstore\n      keccak256(0x00, 0x40)\n      0x00\n      swap2\n      pop\n      swap1\n      pop\n      sload\n      dup2\n      jump\t// out\n        /* \"lottery.sol\":2485:2919  function pickWinner() external {... */\n    tag_54:\n        /* \"lottery.sol\":2545:2555  msg.sender */\n      caller\n        /* \"lottery.sol\":2536:2555  admin == msg.sender */\n      0xffffffffffffffffffffffffffffffffffffffff\n      and\n        /* \"lottery.sol\":2536:2541  admin */\n      0x01\n      0x00\n      swap1\n      sload\n      swap1\n      0x0100\n      exp\n      swap1\n      div\n      0xffffffffffffffffffffffffffffffffffffffff\n      and\n        /* \"lottery.sol\":2536:2555  admin == msg.sender */\n      0xffffffffffffffffffffffffffffffffffffffff\n      and\n      eq\n        /* \"lottery.sol\":2527:2581  require( admin == msg.sender, \"You are not the owner\") */\n      tag_101\n      jumpi\n      mload(0x40)\n      0x08c379a000000000000000000000000000000000000000000000000000000000\n      dup2\n      mstore\n      0x04\n      add\n      tag_102\n      swap1\n      tag_103\n      jump\t// in\n    tag_102:\n      mload(0x40)\n      dup1\n      swap2\n      sub\n      swap1\n      revert\n    tag_101:\n        /* \"lottery.sol\":2619:2632  decideEndTime */\n      sload(0x05)\n        /* \"lottery.sol\":2600:2615  block.timestamp */\n      timestamp\n        /* \"lottery.sol\":2600:2632  block.timestamp >= decideEndTime */\n      lt\n      iszero\n        /* \"lottery.sol\":2592:2663  require(block.timestamp >= decideEndTime, \"Decide stage has not ended\") */\n      tag_104\n      jumpi\n      mload(0x40)\n      0x08c379a000000000000000000000000000000000000000000000000000000000\n      dup2\n      mstore\n      0x04\n      add\n      tag_105\n      swap1\n      tag_106\n      jump\t// in\n    tag_105:\n      mload(0x40)\n      dup1\n      swap2\n      sub\n      swap1\n      revert\n    tag_104:\n        /* \"lottery.sol\":2702:2717  revealedNumbers */\n      0x07\n        /* \"lottery.sol\":2702:2727  revealedNumbers[users[0]] */\n      0x00\n        /* \"lottery.sol\":2718:2723  users */\n      dup1\n        /* \"lottery.sol\":2724:2725  0 */\n      0x00\n        /* \"lottery.sol\":2718:2726  users[0] */\n      dup2\n      sload\n      dup2\n      lt\n      tag_107\n      jumpi\n      tag_108\n      tag_109\n      jump\t// in\n    tag_108:\n    tag_107:\n      swap1\n      0x00\n      mstore\n      keccak256(0x00, 0x20)\n      add\n      0x00\n      swap1\n      sload\n      swap1\n      0x0100\n      exp\n      swap1\n      div\n      0xffffffffffffffffffffffffffffffffffffffff\n      and\n        /* \"lottery.sol\":2702:2727  revealedNumbers[users[0]] */\n      0xffffffffffffffffffffffffffffffffffffffff\n      and\n      0xffffffffffffffffffffffffffffffffffffffff\n      and\n      dup2\n      mstore\n      0x20\n      add\n      swap1\n      dup2\n      mstore\n      0x20\n      add\n      0x00\n      keccak256\n      sload\n        /* \"lottery.sol\":2682:2699  finalRandomNumber */\n      0x08\n        /* \"lottery.sol\":2682:2727  finalRandomNumber = revealedNumbers[users[0]] */\n      dup2\n      swap1\n      sstore\n      pop\n        /* \"lottery.sol\":2743:2749  uint i */\n      0x00\n        /* \"lottery.sol\":2752:2753  1 */\n      0x01\n        /* \"lottery.sol\":2743:2753  uint i = 1 */\n      swap1\n      pop\n        /* \"lottery.sol\":2738:2851  for (uint i = 1; i < users.length; i++) {... */\n    tag_111:\n        /* \"lottery.sol\":2759:2764  users */\n      0x00\n        /* \"lottery.sol\":2759:2771  users.length */\n      dup1\n      sload\n      swap1\n      pop\n        /* \"lottery.sol\":2755:2756  i */\n      dup2\n        /* \"lottery.sol\":2755:2771  i < users.length */\n      lt\n        /* \"lottery.sol\":2738:2851  for (uint i = 1; i < users.length; i++) {... */\n      iszero\n      tag_112\n      jumpi\n        /* \"lottery.sol\":2814:2829  revealedNumbers */\n      0x07\n        /* \"lottery.sol\":2814:2839  revealedNumbers[users[i]] */\n      0x00\n        /* \"lottery.sol\":2830:2835  users */\n      dup1\n        /* \"lottery.sol\":2836:2837  i */\n      dup4\n        /* \"lottery.sol\":2830:2838  users[i] */\n      dup2\n      sload\n      dup2\n      lt\n      tag_114\n      jumpi\n      tag_115\n      tag_109\n      jump\t// in\n    tag_115:\n    tag_114:\n      swap1\n      0x00\n      mstore\n      keccak256(0x00, 0x20)\n      add\n      0x00\n      swap1\n      sload\n      swap1\n      0x0100\n      exp\n      swap1\n      div\n      0xffffffffffffffffffffffffffffffffffffffff\n      and\n        /* \"lottery.sol\":2814:2839  revealedNumbers[users[i]] */\n      0xffffffffffffffffffffffffffffffffffffffff\n      and\n      0xffffffffffffffffffffffffffffffffffffffff\n      and\n      dup2\n      mstore\n      0x20\n      add\n      swap1\n      dup2\n      mstore\n      0x20\n      add\n      0x00\n      keccak256\n      sload\n        /* \"lottery.sol\":2793:2810  finalRandomNumber */\n      0x08\n      0x00\n        /* \"lottery.sol\":2793:2839  finalRandomNumber ^= revealedNumbers[users[i]] */\n      dup3\n      dup3\n      sload\n      xor\n      swap3\n      pop\n      pop\n      dup2\n      swap1\n      sstore\n      pop\n        /* \"lottery.sol\":2773:2776  i++ */\n      dup1\n      dup1\n      0x01\n      add\n      swap2\n      pop\n      pop\n        /* \"lottery.sol\":2738:2851  for (uint i = 1; i < users.length; i++) {... */\n      jump(tag_111)\n    tag_112:\n      pop\n        /* \"lottery.sol\":2872:2877  users */\n      0x00\n        /* \"lottery.sol\":2898:2903  users */\n      dup1\n        /* \"lottery.sol\":2898:2910  users.length */\n      dup1\n      sload\n      swap1\n      pop\n        /* \"lottery.sol\":2878:2895  finalRandomNumber */\n      sload(0x08)\n        /* \"lottery.sol\":2878:2910  finalRandomNumber % users.length */\n      tag_117\n      swap2\n      swap1\n      tag_118\n      jump\t// in\n    tag_117:\n        /* \"lottery.sol\":2872:2911  users[finalRandomNumber % users.length] */\n      dup2\n      sload\n      dup2\n      lt\n      tag_119\n      jumpi\n      tag_120\n      tag_109\n      jump\t// in\n    tag_120:\n    tag_119:\n      swap1\n      0x00\n      mstore\n      keccak256(0x00, 0x20)\n      add\n      0x00\n      swap1\n      sload\n      swap1\n      0x0100\n      exp\n      swap1\n      div\n      0xffffffffffffffffffffffffffffffffffffffff\n      and\n        /* \"lottery.sol\":2863:2869  winner */\n      0x02\n      0x00\n        /* \"lottery.sol\":2863:2911  winner = users[finalRandomNumber % users.length] */\n      0x0100\n      exp\n      dup2\n      sload\n      dup2\n      0xffffffffffffffffffffffffffffffffffffffff\n      mul\n      not\n      and\n      swap1\n      dup4\n      0xffffffffffffffffffffffffffffffffffffffff\n      and\n      mul\n      or\n      swap1\n      sstore\n      pop\n        /* \"lottery.sol\":2485:2919  function pickWinner() external {... */\n      jump\t// out\n        /* \"lottery.sol\":2925:3143  function claimPrize() external {... */\n    tag_57:\n        /* \"lottery.sol\":2989:2995  winner */\n      0x02\n      0x00\n      swap1\n      sload\n      swap1\n      0x0100\n      exp\n      swap1\n      div\n      0xffffffffffffffffffffffffffffffffffffffff\n      and\n        /* \"lottery.sol\":2975:2995  msg.sender == winner */\n      0xffffffffffffffffffffffffffffffffffffffff\n      and\n        /* \"lottery.sol\":2975:2985  msg.sender */\n      caller\n        /* \"lottery.sol\":2975:2995  msg.sender == winner */\n      0xffffffffffffffffffffffffffffffffffffffff\n      and\n      eq\n        /* \"lottery.sol\":2967:3022  require(msg.sender == winner, \"You are not the winner\") */\n      tag_123\n      jumpi\n      mload(0x40)\n      0x08c379a000000000000000000000000000000000000000000000000000000000\n      dup2\n      mstore\n      0x04\n      add\n      tag_124\n      swap1\n      tag_125\n      jump\t// in\n    tag_124:\n      mload(0x40)\n      dup1\n      swap2\n      sub\n      swap1\n      revert\n    tag_123:\n        /* \"lottery.sol\":3033:3039  winner */\n      0x02\n      0x00\n      swap1\n      sload\n      swap1\n      0x0100\n      exp\n      swap1\n      div\n      0xffffffffffffffffffffffffffffffffffffffff\n      and\n        /* \"lottery.sol\":3033:3048  winner.transfer */\n      0xffffffffffffffffffffffffffffffffffffffff\n      and\n        /* \"lottery.sol\":3033:3062  winner.transfer(getBalance()) */\n      0x08fc\n        /* \"lottery.sol\":3049:3061  getBalance() */\n      tag_126\n        /* \"lottery.sol\":3049:3059  getBalance */\n      tag_28\n        /* \"lottery.sol\":3049:3061  getBalance() */\n      jump\t// in\n    tag_126:\n        /* \"lottery.sol\":3033:3062  winner.transfer(getBalance()) */\n      swap1\n      dup2\n      iszero\n      mul\n      swap1\n      mload(0x40)\n      0x00\n      mload(0x40)\n      dup1\n      dup4\n      sub\n      dup2\n      dup6\n      dup9\n      dup9\n      call\n      swap4\n      pop\n      pop\n      pop\n      pop\n      iszero\n      dup1\n      iszero\n      tag_128\n      jumpi\n      returndatasize\n      0x00\n      dup1\n      returndatacopy\n      revert(0x00, returndatasize)\n    tag_128:\n      pop\n        /* \"lottery.sol\":2925:3143  function claimPrize() external {... */\n      jump\t// out\n        /* \"lottery.sol\":530:578  mapping (address => uint) public revealedNumbers */\n    tag_61:\n      mstore(0x20, 0x07)\n      dup1\n      0x00\n      mstore\n      keccak256(0x00, 0x40)\n      0x00\n      swap2\n      pop\n      swap1\n      pop\n      sload\n      dup2\n      jump\t// out\n        /* \"lottery.sol\":350:371  uint public ticketFee */\n    tag_65:\n      sload(0x03)\n      dup2\n      jump\t// out\n        /* \"lottery.sol\":288:317  address payable public winner */\n    tag_69:\n      0x02\n      0x00\n      swap1\n      sload\n      swap1\n      0x0100\n      exp\n      swap1\n      div\n      0xffffffffffffffffffffffffffffffffffffffff\n      and\n      dup2\n      jump\t// out\n        /* \"lottery.sol\":1971:2426  function revealNumber(uint number) external {... */\n    tag_74:\n        /* \"lottery.sol\":2052:2065  decideEndTime */\n      sload(0x05)\n        /* \"lottery.sol\":2034:2049  block.timestamp */\n      timestamp\n        /* \"lottery.sol\":2034:2065  block.timestamp < decideEndTime */\n      lt\n        /* \"lottery.sol\":2026:2100  require(block.timestamp < decideEndTime, \"Lottery reveal period is over!\") */\n      tag_130\n      jumpi\n      mload(0x40)\n      0x08c379a000000000000000000000000000000000000000000000000000000000\n      dup2\n      mstore\n      0x04\n      add\n      tag_131\n      swap1\n      tag_132\n      jump\t// in\n    tag_131:\n      mload(0x40)\n      dup1\n      swap2\n      sub\n      swap1\n      revert\n    tag_130:\n        /* \"lottery.sol\":2147:2148  0 */\n      0x00\n        /* \"lottery.sol\":2119:2148  userRNHashes[msg.sender] != 0 */\n      dup1\n      shl\n        /* \"lottery.sol\":2119:2131  userRNHashes */\n      0x06\n        /* \"lottery.sol\":2119:2143  userRNHashes[msg.sender] */\n      0x00\n        /* \"lottery.sol\":2132:2142  msg.sender */\n      caller\n        /* \"lottery.sol\":2119:2143  userRNHashes[msg.sender] */\n      0xffffffffffffffffffffffffffffffffffffffff\n      and\n      0xffffffffffffffffffffffffffffffffffffffff\n      and\n      dup2\n      mstore\n      0x20\n      add\n      swap1\n      dup2\n      mstore\n      0x20\n      add\n      0x00\n      keccak256\n      sload\n        /* \"lottery.sol\":2119:2148  userRNHashes[msg.sender] != 0 */\n      sub\n        /* \"lottery.sol\":2111:2170  require(userRNHashes[msg.sender] != 0, \"No hash submitted\") */\n      tag_133\n      jumpi\n      mload(0x40)\n      0x08c379a000000000000000000000000000000000000000000000000000000000\n      dup2\n      mstore\n      0x04\n      add\n      tag_134\n      swap1\n      tag_135\n      jump\t// in\n    tag_134:\n      mload(0x40)\n      dup1\n      swap2\n      sub\n      swap1\n      revert\n    tag_133:\n        /* \"lottery.sol\":2220:2221  0 */\n      0x00\n        /* \"lottery.sol\":2189:2204  revealedNumbers */\n      0x07\n        /* \"lottery.sol\":2189:2216  revealedNumbers[msg.sender] */\n      0x00\n        /* \"lottery.sol\":2205:2215  msg.sender */\n      caller\n        /* \"lottery.sol\":2189:2216  revealedNumbers[msg.sender] */\n      0xffffffffffffffffffffffffffffffffffffffff\n      and\n      0xffffffffffffffffffffffffffffffffffffffff\n      and\n      dup2\n      mstore\n      0x20\n      add\n      swap1\n      dup2\n      mstore\n      0x20\n      add\n      0x00\n      keccak256\n      sload\n        /* \"lottery.sol\":2189:2221  revealedNumbers[msg.sender] == 0 */\n      eq\n        /* \"lottery.sol\":2181:2242  require(revealedNumbers[msg.sender] == 0, \"Already revealed\") */\n      tag_136\n      jumpi\n      mload(0x40)\n      0x08c379a000000000000000000000000000000000000000000000000000000000\n      dup2\n      mstore\n      0x04\n      add\n      tag_137\n      swap1\n      tag_138\n      jump\t// in\n    tag_137:\n      mload(0x40)\n      dup1\n      swap2\n      sub\n      swap1\n      revert\n    tag_136:\n        /* \"lottery.sol\":2316:2322  number */\n      dup1\n        /* \"lottery.sol\":2299:2323  abi.encodePacked(number) */\n      add(0x20, mload(0x40))\n      tag_139\n      swap2\n      swap1\n      tag_140\n      jump\t// in\n    tag_139:\n      mload(0x40)\n      0x20\n      dup2\n      dup4\n      sub\n      sub\n      dup2\n      mstore\n      swap1\n      0x40\n      mstore\n        /* \"lottery.sol\":2289:2324  keccak256(abi.encodePacked(number)) */\n      dup1\n      mload\n      swap1\n      0x20\n      add\n      keccak256\n        /* \"lottery.sol\":2261:2273  userRNHashes */\n      0x06\n        /* \"lottery.sol\":2261:2285  userRNHashes[msg.sender] */\n      0x00\n        /* \"lottery.sol\":2274:2284  msg.sender */\n      caller\n        /* \"lottery.sol\":2261:2285  userRNHashes[msg.sender] */\n      0xffffffffffffffffffffffffffffffffffffffff\n      and\n      0xffffffffffffffffffffffffffffffffffffffff\n      and\n      dup2\n      mstore\n      0x20\n      add\n      swap1\n      dup2\n      mstore\n      0x20\n      add\n      0x00\n      keccak256\n      sload\n        /* \"lottery.sol\":2261:2324  userRNHashes[msg.sender] == keccak256(abi.encodePacked(number)) */\n      eq\n        /* \"lottery.sol\":2253:2369  require(userRNHashes[msg.sender] == keccak256(abi.encodePacked(number)), \"You aren't revealing the correct number!\") */\n      tag_141\n      jumpi\n      mload(0x40)\n      0x08c379a000000000000000000000000000000000000000000000000000000000\n      dup2\n      mstore\n      0x04\n      add\n      tag_142\n      swap1\n      tag_143\n      jump\t// in\n    tag_142:\n      mload(0x40)\n      dup1\n      swap2\n      sub\n      swap1\n      revert\n    tag_141:\n        /* \"lottery.sol\":2412:2418  number */\n      dup1\n        /* \"lottery.sol\":2382:2397  revealedNumbers */\n      0x07\n        /* \"lottery.sol\":2382:2409  revealedNumbers[msg.sender] */\n      0x00\n        /* \"lottery.sol\":2398:2408  msg.sender */\n      caller\n        /* \"lottery.sol\":2382:2409  revealedNumbers[msg.sender] */\n      0xffffffffffffffffffffffffffffffffffffffff\n      and\n      0xffffffffffffffffffffffffffffffffffffffff\n      and\n      dup2\n      mstore\n      0x20\n      add\n      swap1\n      dup2\n      mstore\n      0x20\n      add\n      0x00\n      keccak256\n        /* \"lottery.sol\":2382:2418  revealedNumbers[msg.sender] = number */\n      dup2\n      swap1\n      sstore\n      pop\n        /* \"lottery.sol\":1971:2426  function revealNumber(uint number) external {... */\n      pop\n      jump\t// out\n        /* \"#utility.yul\":7:84   */\n    tag_144:\n        /* \"#utility.yul\":44:51   */\n      0x00\n        /* \"#utility.yul\":73:78   */\n      dup2\n        /* \"#utility.yul\":62:78   */\n      swap1\n      pop\n        /* \"#utility.yul\":7:84   */\n      swap2\n      swap1\n      pop\n      jump\t// out\n        /* \"#utility.yul\":90:208   */\n    tag_145:\n        /* \"#utility.yul\":177:201   */\n      tag_193\n        /* \"#utility.yul\":195:200   */\n      dup2\n        /* \"#utility.yul\":177:201   */\n      tag_144\n      jump\t// in\n    tag_193:\n        /* \"#utility.yul\":172:175   */\n      dup3\n        /* \"#utility.yul\":165:202   */\n      mstore\n        /* \"#utility.yul\":90:208   */\n      pop\n      pop\n      jump\t// out\n        /* \"#utility.yul\":214:436   */\n    tag_21:\n        /* \"#utility.yul\":307:311   */\n      0x00\n        /* \"#utility.yul\":345:347   */\n      0x20\n        /* \"#utility.yul\":334:343   */\n      dup3\n        /* \"#utility.yul\":330:348   */\n      add\n        /* \"#utility.yul\":322:348   */\n      swap1\n      pop\n        /* \"#utility.yul\":358:429   */\n      tag_195\n        /* \"#utility.yul\":426:427   */\n      0x00\n        /* \"#utility.yul\":415:424   */\n      dup4\n        /* \"#utility.yul\":411:428   */\n      add\n        /* \"#utility.yul\":402:408   */\n      dup5\n        /* \"#utility.yul\":358:429   */\n      tag_145\n      jump\t// in\n    tag_195:\n        /* \"#utility.yul\":214:436   */\n      swap3\n      swap2\n      pop\n      pop\n      jump\t// out\n        /* \"#utility.yul\":523:640   */\n    tag_147:\n        /* \"#utility.yul\":632:633   */\n      0x00\n        /* \"#utility.yul\":629:630   */\n      dup1\n        /* \"#utility.yul\":622:634   */\n      revert\n        /* \"#utility.yul\":769:846   */\n    tag_149:\n        /* \"#utility.yul\":806:813   */\n      0x00\n        /* \"#utility.yul\":835:840   */\n      dup2\n        /* \"#utility.yul\":824:840   */\n      swap1\n      pop\n        /* \"#utility.yul\":769:846   */\n      swap2\n      swap1\n      pop\n      jump\t// out\n        /* \"#utility.yul\":852:974   */\n    tag_150:\n        /* \"#utility.yul\":925:949   */\n      tag_201\n        /* \"#utility.yul\":943:948   */\n      dup2\n        /* \"#utility.yul\":925:949   */\n      tag_149\n      jump\t// in\n    tag_201:\n        /* \"#utility.yul\":918:923   */\n      dup2\n        /* \"#utility.yul\":915:950   */\n      eq\n        /* \"#utility.yul\":905:968   */\n      tag_202\n      jumpi\n        /* \"#utility.yul\":964:965   */\n      0x00\n        /* \"#utility.yul\":961:962   */\n      dup1\n        /* \"#utility.yul\":954:966   */\n      revert\n        /* \"#utility.yul\":905:968   */\n    tag_202:\n        /* \"#utility.yul\":852:974   */\n      pop\n      jump\t// out\n        /* \"#utility.yul\":980:1119   */\n    tag_151:\n        /* \"#utility.yul\":1026:1031   */\n      0x00\n        /* \"#utility.yul\":1064:1070   */\n      dup2\n        /* \"#utility.yul\":1051:1071   */\n      calldataload\n        /* \"#utility.yul\":1042:1071   */\n      swap1\n      pop\n        /* \"#utility.yul\":1080:1113   */\n      tag_204\n        /* \"#utility.yul\":1107:1112   */\n      dup2\n        /* \"#utility.yul\":1080:1113   */\n      tag_150\n      jump\t// in\n    tag_204:\n        /* \"#utility.yul\":980:1119   */\n      swap3\n      swap2\n      pop\n      pop\n      jump\t// out\n        /* \"#utility.yul\":1125:1454   */\n    tag_32:\n        /* \"#utility.yul\":1184:1190   */\n      0x00\n        /* \"#utility.yul\":1233:1235   */\n      0x20\n        /* \"#utility.yul\":1221:1230   */\n      dup3\n        /* \"#utility.yul\":1212:1219   */\n      dup5\n        /* \"#utility.yul\":1208:1231   */\n      sub\n        /* \"#utility.yul\":1204:1236   */\n      slt\n        /* \"#utility.yul\":1201:1320   */\n      iszero\n      tag_206\n      jumpi\n        /* \"#utility.yul\":1239:1318   */\n      tag_207\n      tag_147\n      jump\t// in\n    tag_207:\n        /* \"#utility.yul\":1201:1320   */\n    tag_206:\n        /* \"#utility.yul\":1359:1360   */\n      0x00\n        /* \"#utility.yul\":1384:1437   */\n      tag_208\n        /* \"#utility.yul\":1429:1436   */\n      dup5\n        /* \"#utility.yul\":1420:1426   */\n      dup3\n        /* \"#utility.yul\":1409:1418   */\n      dup6\n        /* \"#utility.yul\":1405:1427   */\n      add\n        /* \"#utility.yul\":1384:1437   */\n      tag_151\n      jump\t// in\n    tag_208:\n        /* \"#utility.yul\":1374:1437   */\n      swap2\n      pop\n        /* \"#utility.yul\":1330:1447   */\n      pop\n        /* \"#utility.yul\":1125:1454   */\n      swap3\n      swap2\n      pop\n      pop\n      jump\t// out\n        /* \"#utility.yul\":1460:1582   */\n    tag_152:\n        /* \"#utility.yul\":1533:1557   */\n      tag_210\n        /* \"#utility.yul\":1551:1556   */\n      dup2\n        /* \"#utility.yul\":1533:1557   */\n      tag_144\n      jump\t// in\n    tag_210:\n        /* \"#utility.yul\":1526:1531   */\n      dup2\n        /* \"#utility.yul\":1523:1558   */\n      eq\n        /* \"#utility.yul\":1513:1576   */\n      tag_211\n      jumpi\n        /* \"#utility.yul\":1572:1573   */\n      0x00\n        /* \"#utility.yul\":1569:1570   */\n      dup1\n        /* \"#utility.yul\":1562:1574   */\n      revert\n        /* \"#utility.yul\":1513:1576   */\n    tag_211:\n        /* \"#utility.yul\":1460:1582   */\n      pop\n      jump\t// out\n        /* \"#utility.yul\":1588:1727   */\n    tag_153:\n        /* \"#utility.yul\":1634:1639   */\n      0x00\n        /* \"#utility.yul\":1672:1678   */\n      dup2\n        /* \"#utility.yul\":1659:1679   */\n      calldataload\n        /* \"#utility.yul\":1650:1679   */\n      swap1\n      pop\n        /* \"#utility.yul\":1688:1721   */\n      tag_213\n        /* \"#utility.yul\":1715:1720   */\n      dup2\n        /* \"#utility.yul\":1688:1721   */\n      tag_152\n      jump\t// in\n    tag_213:\n        /* \"#utility.yul\":1588:1727   */\n      swap3\n      swap2\n      pop\n      pop\n      jump\t// out\n        /* \"#utility.yul\":1733:2062   */\n    tag_41:\n        /* \"#utility.yul\":1792:1798   */\n      0x00\n        /* \"#utility.yul\":1841:1843   */\n      0x20\n        /* \"#utility.yul\":1829:1838   */\n      dup3\n        /* \"#utility.yul\":1820:1827   */\n      dup5\n        /* \"#utility.yul\":1816:1839   */\n      sub\n        /* \"#utility.yul\":1812:1844   */\n      slt\n        /* \"#utility.yul\":1809:1928   */\n      iszero\n      tag_215\n      jumpi\n        /* \"#utility.yul\":1847:1926   */\n      tag_216\n      tag_147\n      jump\t// in\n    tag_216:\n        /* \"#utility.yul\":1809:1928   */\n    tag_215:\n        /* \"#utility.yul\":1967:1968   */\n      0x00\n        /* \"#utility.yul\":1992:2045   */\n      tag_217\n        /* \"#utility.yul\":2037:2044   */\n      dup5\n        /* \"#utility.yul\":2028:2034   */\n      dup3\n        /* \"#utility.yul\":2017:2026   */\n      dup6\n        /* \"#utility.yul\":2013:2035   */\n      add\n        /* \"#utility.yul\":1992:2045   */\n      tag_153\n      jump\t// in\n    tag_217:\n        /* \"#utility.yul\":1982:2045   */\n      swap2\n      pop\n        /* \"#utility.yul\":1938:2055   */\n      pop\n        /* \"#utility.yul\":1733:2062   */\n      swap3\n      swap2\n      pop\n      pop\n      jump\t// out\n        /* \"#utility.yul\":2068:2194   */\n    tag_154:\n        /* \"#utility.yul\":2105:2112   */\n      0x00\n        /* \"#utility.yul\":2145:2187   */\n      0xffffffffffffffffffffffffffffffffffffffff\n        /* \"#utility.yul\":2138:2143   */\n      dup3\n        /* \"#utility.yul\":2134:2188   */\n      and\n        /* \"#utility.yul\":2123:2188   */\n      swap1\n      pop\n        /* \"#utility.yul\":2068:2194   */\n      swap2\n      swap1\n      pop\n      jump\t// out\n        /* \"#utility.yul\":2200:2304   */\n    tag_155:\n        /* \"#utility.yul\":2245:2252   */\n      0x00\n        /* \"#utility.yul\":2274:2298   */\n      tag_220\n        /* \"#utility.yul\":2292:2297   */\n      dup3\n        /* \"#utility.yul\":2274:2298   */\n      tag_154\n      jump\t// in\n    tag_220:\n        /* \"#utility.yul\":2263:2298   */\n      swap1\n      pop\n        /* \"#utility.yul\":2200:2304   */\n      swap2\n      swap1\n      pop\n      jump\t// out\n        /* \"#utility.yul\":2310:2452   */\n    tag_156:\n        /* \"#utility.yul\":2413:2445   */\n      tag_222\n        /* \"#utility.yul\":2439:2444   */\n      dup2\n        /* \"#utility.yul\":2413:2445   */\n      tag_155\n      jump\t// in\n    tag_222:\n        /* \"#utility.yul\":2408:2411   */\n      dup3\n        /* \"#utility.yul\":2401:2446   */\n      mstore\n        /* \"#utility.yul\":2310:2452   */\n      pop\n      pop\n      jump\t// out\n        /* \"#utility.yul\":2458:2712   */\n    tag_44:\n        /* \"#utility.yul\":2567:2571   */\n      0x00\n        /* \"#utility.yul\":2605:2607   */\n      0x20\n        /* \"#utility.yul\":2594:2603   */\n      dup3\n        /* \"#utility.yul\":2590:2608   */\n      add\n        /* \"#utility.yul\":2582:2608   */\n      swap1\n      pop\n        /* \"#utility.yul\":2618:2705   */\n      tag_224\n        /* \"#utility.yul\":2702:2703   */\n      0x00\n        /* \"#utility.yul\":2691:2700   */\n      dup4\n        /* \"#utility.yul\":2687:2704   */\n      add\n        /* \"#utility.yul\":2678:2684   */\n      dup5\n        /* \"#utility.yul\":2618:2705   */\n      tag_156\n      jump\t// in\n    tag_224:\n        /* \"#utility.yul\":2458:2712   */\n      swap3\n      swap2\n      pop\n      pop\n      jump\t// out\n        /* \"#utility.yul\":2718:2814   */\n    tag_157:\n        /* \"#utility.yul\":2755:2762   */\n      0x00\n        /* \"#utility.yul\":2784:2808   */\n      tag_226\n        /* \"#utility.yul\":2802:2807   */\n      dup3\n        /* \"#utility.yul\":2784:2808   */\n      tag_154\n      jump\t// in\n    tag_226:\n        /* \"#utility.yul\":2773:2808   */\n      swap1\n      pop\n        /* \"#utility.yul\":2718:2814   */\n      swap2\n      swap1\n      pop\n      jump\t// out\n        /* \"#utility.yul\":2820:2942   */\n    tag_158:\n        /* \"#utility.yul\":2893:2917   */\n      tag_228\n        /* \"#utility.yul\":2911:2916   */\n      dup2\n        /* \"#utility.yul\":2893:2917   */\n      tag_157\n      jump\t// in\n    tag_228:\n        /* \"#utility.yul\":2886:2891   */\n      dup2\n        /* \"#utility.yul\":2883:2918   */\n      eq\n        /* \"#utility.yul\":2873:2936   */\n      tag_229\n      jumpi\n        /* \"#utility.yul\":2932:2933   */\n      0x00\n        /* \"#utility.yul\":2929:2930   */\n      dup1\n        /* \"#utility.yul\":2922:2934   */\n      revert\n        /* \"#utility.yul\":2873:2936   */\n    tag_229:\n        /* \"#utility.yul\":2820:2942   */\n      pop\n      jump\t// out\n        /* \"#utility.yul\":2948:3087   */\n    tag_159:\n        /* \"#utility.yul\":2994:2999   */\n      0x00\n        /* \"#utility.yul\":3032:3038   */\n      dup2\n        /* \"#utility.yul\":3019:3039   */\n      calldataload\n        /* \"#utility.yul\":3010:3039   */\n      swap1\n      pop\n        /* \"#utility.yul\":3048:3081   */\n      tag_231\n        /* \"#utility.yul\":3075:3080   */\n      dup2\n        /* \"#utility.yul\":3048:3081   */\n      tag_158\n      jump\t// in\n    tag_231:\n        /* \"#utility.yul\":2948:3087   */\n      swap3\n      swap2\n      pop\n      pop\n      jump\t// out\n        /* \"#utility.yul\":3093:3422   */\n    tag_48:\n        /* \"#utility.yul\":3152:3158   */\n      0x00\n        /* \"#utility.yul\":3201:3203   */\n      0x20\n        /* \"#utility.yul\":3189:3198   */\n      dup3\n        /* \"#utility.yul\":3180:3187   */\n      dup5\n        /* \"#utility.yul\":3176:3199   */\n      sub\n        /* \"#utility.yul\":3172:3204   */\n      slt\n        /* \"#utility.yul\":3169:3288   */\n      iszero\n      tag_233\n      jumpi\n        /* \"#utility.yul\":3207:3286   */\n      tag_234\n      tag_147\n      jump\t// in\n    tag_234:\n        /* \"#utility.yul\":3169:3288   */\n    tag_233:\n        /* \"#utility.yul\":3327:3328   */\n      0x00\n        /* \"#utility.yul\":3352:3405   */\n      tag_235\n        /* \"#utility.yul\":3397:3404   */\n      dup5\n        /* \"#utility.yul\":3388:3394   */\n      dup3\n        /* \"#utility.yul\":3377:3386   */\n      dup6\n        /* \"#utility.yul\":3373:3395   */\n      add\n        /* \"#utility.yul\":3352:3405   */\n      tag_159\n      jump\t// in\n    tag_235:\n        /* \"#utility.yul\":3342:3405   */\n      swap2\n      pop\n        /* \"#utility.yul\":3298:3415   */\n      pop\n        /* \"#utility.yul\":3093:3422   */\n      swap3\n      swap2\n      pop\n      pop\n      jump\t// out\n        /* \"#utility.yul\":3428:3546   */\n    tag_160:\n        /* \"#utility.yul\":3515:3539   */\n      tag_237\n        /* \"#utility.yul\":3533:3538   */\n      dup2\n        /* \"#utility.yul\":3515:3539   */\n      tag_149\n      jump\t// in\n    tag_237:\n        /* \"#utility.yul\":3510:3513   */\n      dup3\n        /* \"#utility.yul\":3503:3540   */\n      mstore\n        /* \"#utility.yul\":3428:3546   */\n      pop\n      pop\n      jump\t// out\n        /* \"#utility.yul\":3552:3774   */\n    tag_51:\n        /* \"#utility.yul\":3645:3649   */\n      0x00\n        /* \"#utility.yul\":3683:3685   */\n      0x20\n        /* \"#utility.yul\":3672:3681   */\n      dup3\n        /* \"#utility.yul\":3668:3686   */\n      add\n        /* \"#utility.yul\":3660:3686   */\n      swap1\n      pop\n        /* \"#utility.yul\":3696:3767   */\n      tag_239\n        /* \"#utility.yul\":3764:3765   */\n      0x00\n        /* \"#utility.yul\":3753:3762   */\n      dup4\n        /* \"#utility.yul\":3749:3766   */\n      add\n        /* \"#utility.yul\":3740:3746   */\n      dup5\n        /* \"#utility.yul\":3696:3767   */\n      tag_160\n      jump\t// in\n    tag_239:\n        /* \"#utility.yul\":3552:3774   */\n      swap3\n      swap2\n      pop\n      pop\n      jump\t// out\n        /* \"#utility.yul\":3780:3949   */\n    tag_161:\n        /* \"#utility.yul\":3864:3875   */\n      0x00\n        /* \"#utility.yul\":3898:3904   */\n      dup3\n        /* \"#utility.yul\":3893:3896   */\n      dup3\n        /* \"#utility.yul\":3886:3905   */\n      mstore\n        /* \"#utility.yul\":3938:3942   */\n      0x20\n        /* \"#utility.yul\":3933:3936   */\n      dup3\n        /* \"#utility.yul\":3929:3943   */\n      add\n        /* \"#utility.yul\":3914:3943   */\n      swap1\n      pop\n        /* \"#utility.yul\":3780:3949   */\n      swap3\n      swap2\n      pop\n      pop\n      jump\t// out\n        /* \"#utility.yul\":3955:4123   */\n    tag_162:\n        /* \"#utility.yul\":4095:4115   */\n      0x4f776e65722063616e6e6f7420706c6179210000000000000000000000000000\n        /* \"#utility.yul\":4091:4092   */\n      0x00\n        /* \"#utility.yul\":4083:4089   */\n      dup3\n        /* \"#utility.yul\":4079:4093   */\n      add\n        /* \"#utility.yul\":4072:4116   */\n      mstore\n        /* \"#utility.yul\":3955:4123   */\n      pop\n      jump\t// out\n        /* \"#utility.yul\":4129:4495   */\n    tag_163:\n        /* \"#utility.yul\":4271:4274   */\n      0x00\n        /* \"#utility.yul\":4292:4359   */\n      tag_243\n        /* \"#utility.yul\":4356:4358   */\n      0x12\n        /* \"#utility.yul\":4351:4354   */\n      dup4\n        /* \"#utility.yul\":4292:4359   */\n      tag_161\n      jump\t// in\n    tag_243:\n        /* \"#utility.yul\":4285:4359   */\n      swap2\n      pop\n        /* \"#utility.yul\":4368:4461   */\n      tag_244\n        /* \"#utility.yul\":4457:4460   */\n      dup3\n        /* \"#utility.yul\":4368:4461   */\n      tag_162\n      jump\t// in\n    tag_244:\n        /* \"#utility.yul\":4486:4488   */\n      0x20\n        /* \"#utility.yul\":4481:4484   */\n      dup3\n        /* \"#utility.yul\":4477:4489   */\n      add\n        /* \"#utility.yul\":4470:4489   */\n      swap1\n      pop\n        /* \"#utility.yul\":4129:4495   */\n      swap2\n      swap1\n      pop\n      jump\t// out\n        /* \"#utility.yul\":4501:4920   */\n    tag_79:\n        /* \"#utility.yul\":4667:4671   */\n      0x00\n        /* \"#utility.yul\":4705:4707   */\n      0x20\n        /* \"#utility.yul\":4694:4703   */\n      dup3\n        /* \"#utility.yul\":4690:4708   */\n      add\n        /* \"#utility.yul\":4682:4708   */\n      swap1\n      pop\n        /* \"#utility.yul\":4754:4763   */\n      dup2\n        /* \"#utility.yul\":4748:4752   */\n      dup2\n        /* \"#utility.yul\":4744:4764   */\n      sub\n        /* \"#utility.yul\":4740:4741   */\n      0x00\n        /* \"#utility.yul\":4729:4738   */\n      dup4\n        /* \"#utility.yul\":4725:4742   */\n      add\n        /* \"#utility.yul\":4718:4765   */\n      mstore\n        /* \"#utility.yul\":4782:4913   */\n      tag_246\n        /* \"#utility.yul\":4908:4912   */\n      dup2\n        /* \"#utility.yul\":4782:4913   */\n      tag_163\n      jump\t// in\n    tag_246:\n        /* \"#utility.yul\":4774:4913   */\n      swap1\n      pop\n        /* \"#utility.yul\":4501:4920   */\n      swap2\n      swap1\n      pop\n      jump\t// out\n        /* \"#utility.yul\":4926:5149   */\n    tag_164:\n        /* \"#utility.yul\":5066:5100   */\n      0x4c6f747465727920636f6e747269627574696f6e20706572696f64206973206f\n        /* \"#utility.yul\":5062:5063   */\n      0x00\n        /* \"#utility.yul\":5054:5060   */\n      dup3\n        /* \"#utility.yul\":5050:5064   */\n      add\n        /* \"#utility.yul\":5043:5101   */\n      mstore\n        /* \"#utility.yul\":5135:5141   */\n      0x7665722100000000000000000000000000000000000000000000000000000000\n        /* \"#utility.yul\":5130:5132   */\n      0x20\n        /* \"#utility.yul\":5122:5128   */\n      dup3\n        /* \"#utility.yul\":5118:5133   */\n      add\n        /* \"#utility.yul\":5111:5142   */\n      mstore\n        /* \"#utility.yul\":4926:5149   */\n      pop\n      jump\t// out\n        /* \"#utility.yul\":5155:5521   */\n    tag_165:\n        /* \"#utility.yul\":5297:5300   */\n      0x00\n        /* \"#utility.yul\":5318:5385   */\n      tag_249\n        /* \"#utility.yul\":5382:5384   */\n      0x24\n        /* \"#utility.yul\":5377:5380   */\n      dup4\n        /* \"#utility.yul\":5318:5385   */\n      tag_161\n      jump\t// in\n    tag_249:\n        /* \"#utility.yul\":5311:5385   */\n      swap2\n      pop\n        /* \"#utility.yul\":5394:5487   */\n      tag_250\n        /* \"#utility.yul\":5483:5486   */\n      dup3\n        /* \"#utility.yul\":5394:5487   */\n      tag_164\n      jump\t// in\n    tag_250:\n        /* \"#utility.yul\":5512:5514   */\n      0x40\n        /* \"#utility.yul\":5507:5510   */\n      dup3\n        /* \"#utility.yul\":5503:5515   */\n      add\n        /* \"#utility.yul\":5496:5515   */\n      swap1\n      pop\n        /* \"#utility.yul\":5155:5521   */\n      swap2\n      swap1\n      pop\n      jump\t// out\n        /* \"#utility.yul\":5527:5946   */\n    tag_82:\n        /* \"#utility.yul\":5693:5697   */\n      0x00\n        /* \"#utility.yul\":5731:5733   */\n      0x20\n        /* \"#utility.yul\":5720:5729   */\n      dup3\n        /* \"#utility.yul\":5716:5734   */\n      add\n        /* \"#utility.yul\":5708:5734   */\n      swap1\n      pop\n        /* \"#utility.yul\":5780:5789   */\n      dup2\n        /* \"#utility.yul\":5774:5778   */\n      dup2\n        /* \"#utility.yul\":5770:5790   */\n      sub\n        /* \"#utility.yul\":5766:5767   */\n      0x00\n        /* \"#utility.yul\":5755:5764   */\n      dup4\n        /* \"#utility.yul\":5751:5768   */\n      add\n        /* \"#utility.yul\":5744:5791   */\n      mstore\n        /* \"#utility.yul\":5808:5939   */\n      tag_252\n        /* \"#utility.yul\":5934:5938   */\n      dup2\n        /* \"#utility.yul\":5808:5939   */\n      tag_165\n      jump\t// in\n    tag_252:\n        /* \"#utility.yul\":5800:5939   */\n      swap1\n      pop\n        /* \"#utility.yul\":5527:5946   */\n      swap2\n      swap1\n      pop\n      jump\t// out\n        /* \"#utility.yul\":5952:6128   */\n    tag_166:\n        /* \"#utility.yul\":6092:6120   */\n      0x5469636b65742066656520697320696e73756666696369656e74000000000000\n        /* \"#utility.yul\":6088:6089   */\n      0x00\n        /* \"#utility.yul\":6080:6086   */\n      dup3\n        /* \"#utility.yul\":6076:6090   */\n      add\n        /* \"#utility.yul\":6069:6121   */\n      mstore\n        /* \"#utility.yul\":5952:6128   */\n      pop\n      jump\t// out\n        /* \"#utility.yul\":6134:6500   */\n    tag_167:\n        /* \"#utility.yul\":6276:6279   */\n      0x00\n        /* \"#utility.yul\":6297:6364   */\n      tag_255\n        /* \"#utility.yul\":6361:6363   */\n      0x1a\n        /* \"#utility.yul\":6356:6359   */\n      dup4\n        /* \"#utility.yul\":6297:6364   */\n      tag_161\n      jump\t// in\n    tag_255:\n        /* \"#utility.yul\":6290:6364   */\n      swap2\n      pop\n        /* \"#utility.yul\":6373:6466   */\n      tag_256\n        /* \"#utility.yul\":6462:6465   */\n      dup3\n        /* \"#utility.yul\":6373:6466   */\n      tag_166\n      jump\t// in\n    tag_256:\n        /* \"#utility.yul\":6491:6493   */\n      0x20\n        /* \"#utility.yul\":6486:6489   */\n      dup3\n        /* \"#utility.yul\":6482:6494   */\n      add\n        /* \"#utility.yul\":6475:6494   */\n      swap1\n      pop\n        /* \"#utility.yul\":6134:6500   */\n      swap2\n      swap1\n      pop\n      jump\t// out\n        /* \"#utility.yul\":6506:6925   */\n    tag_85:\n        /* \"#utility.yul\":6672:6676   */\n      0x00\n        /* \"#utility.yul\":6710:6712   */\n      0x20\n        /* \"#utility.yul\":6699:6708   */\n      dup3\n        /* \"#utility.yul\":6695:6713   */\n      add\n        /* \"#utility.yul\":6687:6713   */\n      swap1\n      pop\n        /* \"#utility.yul\":6759:6768   */\n      dup2\n        /* \"#utility.yul\":6753:6757   */\n      dup2\n        /* \"#utility.yul\":6749:6769   */\n      sub\n        /* \"#utility.yul\":6745:6746   */\n      0x00\n        /* \"#utility.yul\":6734:6743   */\n      dup4\n        /* \"#utility.yul\":6730:6747   */\n      add\n        /* \"#utility.yul\":6723:6770   */\n      mstore\n        /* \"#utility.yul\":6787:6918   */\n      tag_258\n        /* \"#utility.yul\":6913:6917   */\n      dup2\n        /* \"#utility.yul\":6787:6918   */\n      tag_167\n      jump\t// in\n    tag_258:\n        /* \"#utility.yul\":6779:6918   */\n      swap1\n      pop\n        /* \"#utility.yul\":6506:6925   */\n      swap2\n      swap1\n      pop\n      jump\t// out\n        /* \"#utility.yul\":6931:7107   */\n    tag_168:\n        /* \"#utility.yul\":7071:7099   */\n      0x416c7265616479207075726368617365642061207469636b6574000000000000\n        /* \"#utility.yul\":7067:7068   */\n      0x00\n        /* \"#utility.yul\":7059:7065   */\n      dup3\n        /* \"#utility.yul\":7055:7069   */\n      add\n        /* \"#utility.yul\":7048:7100   */\n      mstore\n        /* \"#utility.yul\":6931:7107   */\n      pop\n      jump\t// out\n        /* \"#utility.yul\":7113:7479   */\n    tag_169:\n        /* \"#utility.yul\":7255:7258   */\n      0x00\n        /* \"#utility.yul\":7276:7343   */\n      tag_261\n        /* \"#utility.yul\":7340:7342   */\n      0x1a\n        /* \"#utility.yul\":7335:7338   */\n      dup4\n        /* \"#utility.yul\":7276:7343   */\n      tag_161\n      jump\t// in\n    tag_261:\n        /* \"#utility.yul\":7269:7343   */\n      swap2\n      pop\n        /* \"#utility.yul\":7352:7445   */\n      tag_262\n        /* \"#utility.yul\":7441:7444   */\n      dup3\n        /* \"#utility.yul\":7352:7445   */\n      tag_168\n      jump\t// in\n    tag_262:\n        /* \"#utility.yul\":7470:7472   */\n      0x20\n        /* \"#utility.yul\":7465:7468   */\n      dup3\n        /* \"#utility.yul\":7461:7473   */\n      add\n        /* \"#utility.yul\":7454:7473   */\n      swap1\n      pop\n        /* \"#utility.yul\":7113:7479   */\n      swap2\n      swap1\n      pop\n      jump\t// out\n        /* \"#utility.yul\":7485:7904   */\n    tag_88:\n        /* \"#utility.yul\":7651:7655   */\n      0x00\n        /* \"#utility.yul\":7689:7691   */\n      0x20\n        /* \"#utility.yul\":7678:7687   */\n      dup3\n        /* \"#utility.yul\":7674:7692   */\n      add\n        /* \"#utility.yul\":7666:7692   */\n      swap1\n      pop\n        /* \"#utility.yul\":7738:7747   */\n      dup2\n        /* \"#utility.yul\":7732:7736   */\n      dup2\n        /* \"#utility.yul\":7728:7748   */\n      sub\n        /* \"#utility.yul\":7724:7725   */\n      0x00\n        /* \"#utility.yul\":7713:7722   */\n      dup4\n        /* \"#utility.yul\":7709:7726   */\n      add\n        /* \"#utility.yul\":7702:7749   */\n      mstore\n        /* \"#utility.yul\":7766:7897   */\n      tag_264\n        /* \"#utility.yul\":7892:7896   */\n      dup2\n        /* \"#utility.yul\":7766:7897   */\n      tag_169\n      jump\t// in\n    tag_264:\n        /* \"#utility.yul\":7758:7897   */\n      swap1\n      pop\n        /* \"#utility.yul\":7485:7904   */\n      swap2\n      swap1\n      pop\n      jump\t// out\n        /* \"#utility.yul\":7910:8134   */\n    tag_170:\n        /* \"#utility.yul\":8050:8084   */\n      0x48617368206d7573742062652070726f766964656420746f2062757920612074\n        /* \"#utility.yul\":8046:8047   */\n      0x00\n        /* \"#utility.yul\":8038:8044   */\n      dup3\n        /* \"#utility.yul\":8034:8048   */\n      add\n        /* \"#utility.yul\":8027:8085   */\n      mstore\n        /* \"#utility.yul\":8119:8126   */\n      0x69636b6574000000000000000000000000000000000000000000000000000000\n        /* \"#utility.yul\":8114:8116   */\n      0x20\n        /* \"#utility.yul\":8106:8112   */\n      dup3\n        /* \"#utility.yul\":8102:8117   */\n      add\n        /* \"#utility.yul\":8095:8127   */\n      mstore\n        /* \"#utility.yul\":7910:8134   */\n      pop\n      jump\t// out\n        /* \"#utility.yul\":8140:8506   */\n    tag_171:\n        /* \"#utility.yul\":8282:8285   */\n      0x00\n        /* \"#utility.yul\":8303:8370   */\n      tag_267\n        /* \"#utility.yul\":8367:8369   */\n      0x25\n        /* \"#utility.yul\":8362:8365   */\n      dup4\n        /* \"#utility.yul\":8303:8370   */\n      tag_161\n      jump\t// in\n    tag_267:\n        /* \"#utility.yul\":8296:8370   */\n      swap2\n      pop\n        /* \"#utility.yul\":8379:8472   */\n      tag_268\n        /* \"#utility.yul\":8468:8471   */\n      dup3\n        /* \"#utility.yul\":8379:8472   */\n      tag_170\n      jump\t// in\n    tag_268:\n        /* \"#utility.yul\":8497:8499   */\n      0x40\n        /* \"#utility.yul\":8492:8495   */\n      dup3\n        /* \"#utility.yul\":8488:8500   */\n      add\n        /* \"#utility.yul\":8481:8500   */\n      swap1\n      pop\n        /* \"#utility.yul\":8140:8506   */\n      swap2\n      swap1\n      pop\n      jump\t// out\n        /* \"#utility.yul\":8512:8931   */\n    tag_91:\n        /* \"#utility.yul\":8678:8682   */\n      0x00\n        /* \"#utility.yul\":8716:8718   */\n      0x20\n        /* \"#utility.yul\":8705:8714   */\n      dup3\n        /* \"#utility.yul\":8701:8719   */\n      add\n        /* \"#utility.yul\":8693:8719   */\n      swap1\n      pop\n        /* \"#utility.yul\":8765:8774   */\n      dup2\n        /* \"#utility.yul\":8759:8763   */\n      dup2\n        /* \"#utility.yul\":8755:8775   */\n      sub\n        /* \"#utility.yul\":8751:8752   */\n      0x00\n        /* \"#utility.yul\":8740:8749   */\n      dup4\n        /* \"#utility.yul\":8736:8753   */\n      add\n        /* \"#utility.yul\":8729:8776   */\n      mstore\n        /* \"#utility.yul\":8793:8924   */\n      tag_270\n        /* \"#utility.yul\":8919:8923   */\n      dup2\n        /* \"#utility.yul\":8793:8924   */\n      tag_171\n      jump\t// in\n    tag_270:\n        /* \"#utility.yul\":8785:8924   */\n      swap1\n      pop\n        /* \"#utility.yul\":8512:8931   */\n      swap2\n      swap1\n      pop\n      jump\t// out\n        /* \"#utility.yul\":8937:9117   */\n    tag_172:\n        /* \"#utility.yul\":8985:9062   */\n      0x4e487b7100000000000000000000000000000000000000000000000000000000\n        /* \"#utility.yul\":8982:8983   */\n      0x00\n        /* \"#utility.yul\":8975:9063   */\n      mstore\n        /* \"#utility.yul\":9082:9086   */\n      0x11\n        /* \"#utility.yul\":9079:9080   */\n      0x04\n        /* \"#utility.yul\":9072:9087   */\n      mstore\n        /* \"#utility.yul\":9106:9110   */\n      0x24\n        /* \"#utility.yul\":9103:9104   */\n      0x00\n        /* \"#utility.yul\":9096:9111   */\n      revert\n        /* \"#utility.yul\":9123:9317   */\n    tag_94:\n        /* \"#utility.yul\":9163:9167   */\n      0x00\n        /* \"#utility.yul\":9183:9203   */\n      tag_273\n        /* \"#utility.yul\":9201:9202   */\n      dup3\n        /* \"#utility.yul\":9183:9203   */\n      tag_144\n      jump\t// in\n    tag_273:\n        /* \"#utility.yul\":9178:9203   */\n      swap2\n      pop\n        /* \"#utility.yul\":9217:9237   */\n      tag_274\n        /* \"#utility.yul\":9235:9236   */\n      dup4\n        /* \"#utility.yul\":9217:9237   */\n      tag_144\n      jump\t// in\n    tag_274:\n        /* \"#utility.yul\":9212:9237   */\n      swap3\n      pop\n        /* \"#utility.yul\":9261:9262   */\n      dup3\n        /* \"#utility.yul\":9258:9259   */\n      dup3\n        /* \"#utility.yul\":9254:9263   */\n      sub\n        /* \"#utility.yul\":9246:9263   */\n      swap1\n      pop\n        /* \"#utility.yul\":9285:9286   */\n      dup2\n        /* \"#utility.yul\":9279:9283   */\n      dup2\n        /* \"#utility.yul\":9276:9287   */\n      gt\n        /* \"#utility.yul\":9273:9310   */\n      iszero\n      tag_275\n      jumpi\n        /* \"#utility.yul\":9290:9308   */\n      tag_276\n      tag_172\n      jump\t// in\n    tag_276:\n        /* \"#utility.yul\":9273:9310   */\n    tag_275:\n        /* \"#utility.yul\":9123:9317   */\n      swap3\n      swap2\n      pop\n      pop\n      jump\t// out\n        /* \"#utility.yul\":9323:9494   */\n    tag_173:\n        /* \"#utility.yul\":9463:9486   */\n      0x596f7520617265206e6f7420746865206f776e65720000000000000000000000\n        /* \"#utility.yul\":9459:9460   */\n      0x00\n        /* \"#utility.yul\":9451:9457   */\n      dup3\n        /* \"#utility.yul\":9447:9461   */\n      add\n        /* \"#utility.yul\":9440:9487   */\n      mstore\n        /* \"#utility.yul\":9323:9494   */\n      pop\n      jump\t// out\n        /* \"#utility.yul\":9500:9866   */\n    tag_174:\n        /* \"#utility.yul\":9642:9645   */\n      0x00\n        /* \"#utility.yul\":9663:9730   */\n      tag_279\n        /* \"#utility.yul\":9727:9729   */\n      0x15\n        /* \"#utility.yul\":9722:9725   */\n      dup4\n        /* \"#utility.yul\":9663:9730   */\n      tag_161\n      jump\t// in\n    tag_279:\n        /* \"#utility.yul\":9656:9730   */\n      swap2\n      pop\n        /* \"#utility.yul\":9739:9832   */\n      tag_280\n        /* \"#utility.yul\":9828:9831   */\n      dup3\n        /* \"#utility.yul\":9739:9832   */\n      tag_173\n      jump\t// in\n    tag_280:\n        /* \"#utility.yul\":9857:9859   */\n      0x20\n        /* \"#utility.yul\":9852:9855   */\n      dup3\n        /* \"#utility.yul\":9848:9860   */\n      add\n        /* \"#utility.yul\":9841:9860   */\n      swap1\n      pop\n        /* \"#utility.yul\":9500:9866   */\n      swap2\n      swap1\n      pop\n      jump\t// out\n        /* \"#utility.yul\":9872:10291   */\n    tag_103:\n        /* \"#utility.yul\":10038:10042   */\n      0x00\n        /* \"#utility.yul\":10076:10078   */\n      0x20\n        /* \"#utility.yul\":10065:10074   */\n      dup3\n        /* \"#utility.yul\":10061:10079   */\n      add\n        /* \"#utility.yul\":10053:10079   */\n      swap1\n      pop\n        /* \"#utility.yul\":10125:10134   */\n      dup2\n        /* \"#utility.yul\":10119:10123   */\n      dup2\n        /* \"#utility.yul\":10115:10135   */\n      sub\n        /* \"#utility.yul\":10111:10112   */\n      0x00\n        /* \"#utility.yul\":10100:10109   */\n      dup4\n        /* \"#utility.yul\":10096:10113   */\n      add\n        /* \"#utility.yul\":10089:10136   */\n      mstore\n        /* \"#utility.yul\":10153:10284   */\n      tag_282\n        /* \"#utility.yul\":10279:10283   */\n      dup2\n        /* \"#utility.yul\":10153:10284   */\n      tag_174\n      jump\t// in\n    tag_282:\n        /* \"#utility.yul\":10145:10284   */\n      swap1\n      pop\n        /* \"#utility.yul\":9872:10291   */\n      swap2\n      swap1\n      pop\n      jump\t// out\n        /* \"#utility.yul\":10297:10473   */\n    tag_175:\n        /* \"#utility.yul\":10437:10465   */\n      0x44656369646520737461676520686173206e6f7420656e646564000000000000\n        /* \"#utility.yul\":10433:10434   */\n      0x00\n        /* \"#utility.yul\":10425:10431   */\n      dup3\n        /* \"#utility.yul\":10421:10435   */\n      add\n        /* \"#utility.yul\":10414:10466   */\n      mstore\n        /* \"#utility.yul\":10297:10473   */\n      pop\n      jump\t// out\n        /* \"#utility.yul\":10479:10845   */\n    tag_176:\n        /* \"#utility.yul\":10621:10624   */\n      0x00\n        /* \"#utility.yul\":10642:10709   */\n      tag_285\n        /* \"#utility.yul\":10706:10708   */\n      0x1a\n        /* \"#utility.yul\":10701:10704   */\n      dup4\n        /* \"#utility.yul\":10642:10709   */\n      tag_161\n      jump\t// in\n    tag_285:\n        /* \"#utility.yul\":10635:10709   */\n      swap2\n      pop\n        /* \"#utility.yul\":10718:10811   */\n      tag_286\n        /* \"#utility.yul\":10807:10810   */\n      dup3\n        /* \"#utility.yul\":10718:10811   */\n      tag_175\n      jump\t// in\n    tag_286:\n        /* \"#utility.yul\":10836:10838   */\n      0x20\n        /* \"#utility.yul\":10831:10834   */\n      dup3\n        /* \"#utility.yul\":10827:10839   */\n      add\n        /* \"#utility.yul\":10820:10839   */\n      swap1\n      pop\n        /* \"#utility.yul\":10479:10845   */\n      swap2\n      swap1\n      pop\n      jump\t// out\n        /* \"#utility.yul\":10851:11270   */\n    tag_106:\n        /* \"#utility.yul\":11017:11021   */\n      0x00\n        /* \"#utility.yul\":11055:11057   */\n      0x20\n        /* \"#utility.yul\":11044:11053   */\n      dup3\n        /* \"#utility.yul\":11040:11058   */\n      add\n        /* \"#utility.yul\":11032:11058   */\n      swap1\n      pop\n        /* \"#utility.yul\":11104:11113   */\n      dup2\n        /* \"#utility.yul\":11098:11102   */\n      dup2\n        /* \"#utility.yul\":11094:11114   */\n      sub\n        /* \"#utility.yul\":11090:11091   */\n      0x00\n        /* \"#utility.yul\":11079:11088   */\n      dup4\n        /* \"#utility.yul\":11075:11092   */\n      add\n        /* \"#utility.yul\":11068:11115   */\n      mstore\n        /* \"#utility.yul\":11132:11263   */\n      tag_288\n        /* \"#utility.yul\":11258:11262   */\n      dup2\n        /* \"#utility.yul\":11132:11263   */\n      tag_176\n      jump\t// in\n    tag_288:\n        /* \"#utility.yul\":11124:11263   */\n      swap1\n      pop\n        /* \"#utility.yul\":10851:11270   */\n      swap2\n      swap1\n      pop\n      jump\t// out\n        /* \"#utility.yul\":11276:11456   */\n    tag_109:\n        /* \"#utility.yul\":11324:11401   */\n      0x4e487b7100000000000000000000000000000000000000000000000000000000\n        /* \"#utility.yul\":11321:11322   */\n      0x00\n        /* \"#utility.yul\":11314:11402   */\n      mstore\n        /* \"#utility.yul\":11421:11425   */\n      0x32\n        /* \"#utility.yul\":11418:11419   */\n      0x04\n        /* \"#utility.yul\":11411:11426   */\n      mstore\n        /* \"#utility.yul\":11445:11449   */\n      0x24\n        /* \"#utility.yul\":11442:11443   */\n      0x00\n        /* \"#utility.yul\":11435:11450   */\n      revert\n        /* \"#utility.yul\":11462:11642   */\n    tag_177:\n        /* \"#utility.yul\":11510:11587   */\n      0x4e487b7100000000000000000000000000000000000000000000000000000000\n        /* \"#utility.yul\":11507:11508   */\n      0x00\n        /* \"#utility.yul\":11500:11588   */\n      mstore\n        /* \"#utility.yul\":11607:11611   */\n      0x12\n        /* \"#utility.yul\":11604:11605   */\n      0x04\n        /* \"#utility.yul\":11597:11612   */\n      mstore\n        /* \"#utility.yul\":11631:11635   */\n      0x24\n        /* \"#utility.yul\":11628:11629   */\n      0x00\n        /* \"#utility.yul\":11621:11636   */\n      revert\n        /* \"#utility.yul\":11648:11824   */\n    tag_118:\n        /* \"#utility.yul\":11680:11681   */\n      0x00\n        /* \"#utility.yul\":11697:11717   */\n      tag_292\n        /* \"#utility.yul\":11715:11716   */\n      dup3\n        /* \"#utility.yul\":11697:11717   */\n      tag_144\n      jump\t// in\n    tag_292:\n        /* \"#utility.yul\":11692:11717   */\n      swap2\n      pop\n        /* \"#utility.yul\":11731:11751   */\n      tag_293\n        /* \"#utility.yul\":11749:11750   */\n      dup4\n        /* \"#utility.yul\":11731:11751   */\n      tag_144\n      jump\t// in\n    tag_293:\n        /* \"#utility.yul\":11726:11751   */\n      swap3\n      pop\n        /* \"#utility.yul\":11770:11771   */\n      dup3\n        /* \"#utility.yul\":11760:11795   */\n      tag_294\n      jumpi\n        /* \"#utility.yul\":11775:11793   */\n      tag_295\n      tag_177\n      jump\t// in\n    tag_295:\n        /* \"#utility.yul\":11760:11795   */\n    tag_294:\n        /* \"#utility.yul\":11816:11817   */\n      dup3\n        /* \"#utility.yul\":11813:11814   */\n      dup3\n        /* \"#utility.yul\":11809:11818   */\n      mod\n        /* \"#utility.yul\":11804:11818   */\n      swap1\n      pop\n        /* \"#utility.yul\":11648:11824   */\n      swap3\n      swap2\n      pop\n      pop\n      jump\t// out\n        /* \"#utility.yul\":11830:12002   */\n    tag_178:\n        /* \"#utility.yul\":11970:11994   */\n      0x596f7520617265206e6f74207468652077696e6e657200000000000000000000\n        /* \"#utility.yul\":11966:11967   */\n      0x00\n        /* \"#utility.yul\":11958:11964   */\n      dup3\n        /* \"#utility.yul\":11954:11968   */\n      add\n        /* \"#utility.yul\":11947:11995   */\n      mstore\n        /* \"#utility.yul\":11830:12002   */\n      pop\n      jump\t// out\n        /* \"#utility.yul\":12008:12374   */\n    tag_179:\n        /* \"#utility.yul\":12150:12153   */\n      0x00\n        /* \"#utility.yul\":12171:12238   */\n      tag_298\n        /* \"#utility.yul\":12235:12237   */\n      0x16\n        /* \"#utility.yul\":12230:12233   */\n      dup4\n        /* \"#utility.yul\":12171:12238   */\n      tag_161\n      jump\t// in\n    tag_298:\n        /* \"#utility.yul\":12164:12238   */\n      swap2\n      pop\n        /* \"#utility.yul\":12247:12340   */\n      tag_299\n        /* \"#utility.yul\":12336:12339   */\n      dup3\n        /* \"#utility.yul\":12247:12340   */\n      tag_178\n      jump\t// in\n    tag_299:\n        /* \"#utility.yul\":12365:12367   */\n      0x20\n        /* \"#utility.yul\":12360:12363   */\n      dup3\n        /* \"#utility.yul\":12356:12368   */\n      add\n        /* \"#utility.yul\":12349:12368   */\n      swap1\n      pop\n        /* \"#utility.yul\":12008:12374   */\n      swap2\n      swap1\n      pop\n      jump\t// out\n        /* \"#utility.yul\":12380:12799   */\n    tag_125:\n        /* \"#utility.yul\":12546:12550   */\n      0x00\n        /* \"#utility.yul\":12584:12586   */\n      0x20\n        /* \"#utility.yul\":12573:12582   */\n      dup3\n        /* \"#utility.yul\":12569:12587   */\n      add\n        /* \"#utility.yul\":12561:12587   */\n      swap1\n      pop\n        /* \"#utility.yul\":12633:12642   */\n      dup2\n        /* \"#utility.yul\":12627:12631   */\n      dup2\n        /* \"#utility.yul\":12623:12643   */\n      sub\n        /* \"#utility.yul\":12619:12620   */\n      0x00\n        /* \"#utility.yul\":12608:12617   */\n      dup4\n        /* \"#utility.yul\":12604:12621   */\n      add\n        /* \"#utility.yul\":12597:12644   */\n      mstore\n        /* \"#utility.yul\":12661:12792   */\n      tag_301\n        /* \"#utility.yul\":12787:12791   */\n      dup2\n        /* \"#utility.yul\":12661:12792   */\n      tag_179\n      jump\t// in\n    tag_301:\n        /* \"#utility.yul\":12653:12792   */\n      swap1\n      pop\n        /* \"#utility.yul\":12380:12799   */\n      swap2\n      swap1\n      pop\n      jump\t// out\n        /* \"#utility.yul\":12805:12985   */\n    tag_180:\n        /* \"#utility.yul\":12945:12977   */\n      0x4c6f74746572792072657665616c20706572696f64206973206f766572210000\n        /* \"#utility.yul\":12941:12942   */\n      0x00\n        /* \"#utility.yul\":12933:12939   */\n      dup3\n        /* \"#utility.yul\":12929:12943   */\n      add\n        /* \"#utility.yul\":12922:12978   */\n      mstore\n        /* \"#utility.yul\":12805:12985   */\n      pop\n      jump\t// out\n        /* \"#utility.yul\":12991:13357   */\n    tag_181:\n        /* \"#utility.yul\":13133:13136   */\n      0x00\n        /* \"#utility.yul\":13154:13221   */\n      tag_304\n        /* \"#utility.yul\":13218:13220   */\n      0x1e\n        /* \"#utility.yul\":13213:13216   */\n      dup4\n        /* \"#utility.yul\":13154:13221   */\n      tag_161\n      jump\t// in\n    tag_304:\n        /* \"#utility.yul\":13147:13221   */\n      swap2\n      pop\n        /* \"#utility.yul\":13230:13323   */\n      tag_305\n        /* \"#utility.yul\":13319:13322   */\n      dup3\n        /* \"#utility.yul\":13230:13323   */\n      tag_180\n      jump\t// in\n    tag_305:\n        /* \"#utility.yul\":13348:13350   */\n      0x20\n        /* \"#utility.yul\":13343:13346   */\n      dup3\n        /* \"#utility.yul\":13339:13351   */\n      add\n        /* \"#utility.yul\":13332:13351   */\n      swap1\n      pop\n        /* \"#utility.yul\":12991:13357   */\n      swap2\n      swap1\n      pop\n      jump\t// out\n        /* \"#utility.yul\":13363:13782   */\n    tag_132:\n        /* \"#utility.yul\":13529:13533   */\n      0x00\n        /* \"#utility.yul\":13567:13569   */\n      0x20\n        /* \"#utility.yul\":13556:13565   */\n      dup3\n        /* \"#utility.yul\":13552:13570   */\n      add\n        /* \"#utility.yul\":13544:13570   */\n      swap1\n      pop\n        /* \"#utility.yul\":13616:13625   */\n      dup2\n        /* \"#utility.yul\":13610:13614   */\n      dup2\n        /* \"#utility.yul\":13606:13626   */\n      sub\n        /* \"#utility.yul\":13602:13603   */\n      0x00\n        /* \"#utility.yul\":13591:13600   */\n      dup4\n        /* \"#utility.yul\":13587:13604   */\n      add\n        /* \"#utility.yul\":13580:13627   */\n      mstore\n        /* \"#utility.yul\":13644:13775   */\n      tag_307\n        /* \"#utility.yul\":13770:13774   */\n      dup2\n        /* \"#utility.yul\":13644:13775   */\n      tag_181\n      jump\t// in\n    tag_307:\n        /* \"#utility.yul\":13636:13775   */\n      swap1\n      pop\n        /* \"#utility.yul\":13363:13782   */\n      swap2\n      swap1\n      pop\n      jump\t// out\n        /* \"#utility.yul\":13788:13955   */\n    tag_182:\n        /* \"#utility.yul\":13928:13947   */\n      0x4e6f2068617368207375626d6974746564000000000000000000000000000000\n        /* \"#utility.yul\":13924:13925   */\n      0x00\n        /* \"#utility.yul\":13916:13922   */\n      dup3\n        /* \"#utility.yul\":13912:13926   */\n      add\n        /* \"#utility.yul\":13905:13948   */\n      mstore\n        /* \"#utility.yul\":13788:13955   */\n      pop\n      jump\t// out\n        /* \"#utility.yul\":13961:14327   */\n    tag_183:\n        /* \"#utility.yul\":14103:14106   */\n      0x00\n        /* \"#utility.yul\":14124:14191   */\n      tag_310\n        /* \"#utility.yul\":14188:14190   */\n      0x11\n        /* \"#utility.yul\":14183:14186   */\n      dup4\n        /* \"#utility.yul\":14124:14191   */\n      tag_161\n      jump\t// in\n    tag_310:\n        /* \"#utility.yul\":14117:14191   */\n      swap2\n      pop\n        /* \"#utility.yul\":14200:14293   */\n      tag_311\n        /* \"#utility.yul\":14289:14292   */\n      dup3\n        /* \"#utility.yul\":14200:14293   */\n      tag_182\n      jump\t// in\n    tag_311:\n        /* \"#utility.yul\":14318:14320   */\n      0x20\n        /* \"#utility.yul\":14313:14316   */\n      dup3\n        /* \"#utility.yul\":14309:14321   */\n      add\n        /* \"#utility.yul\":14302:14321   */\n      swap1\n      pop\n        /* \"#utility.yul\":13961:14327   */\n      swap2\n      swap1\n      pop\n      jump\t// out\n        /* \"#utility.yul\":14333:14752   */\n    tag_135:\n        /* \"#utility.yul\":14499:14503   */\n      0x00\n        /* \"#utility.yul\":14537:14539   */\n      0x20\n        /* \"#utility.yul\":14526:14535   */\n      dup3\n        /* \"#utility.yul\":14522:14540   */\n      add\n        /* \"#utility.yul\":14514:14540   */\n      swap1\n      pop\n        /* \"#utility.yul\":14586:14595   */\n      dup2\n        /* \"#utility.yul\":14580:14584   */\n      dup2\n        /* \"#utility.yul\":14576:14596   */\n      sub\n        /* \"#utility.yul\":14572:14573   */\n      0x00\n        /* \"#utility.yul\":14561:14570   */\n      dup4\n        /* \"#utility.yul\":14557:14574   */\n      add\n        /* \"#utility.yul\":14550:14597   */\n      mstore\n        /* \"#utility.yul\":14614:14745   */\n      tag_313\n        /* \"#utility.yul\":14740:14744   */\n      dup2\n        /* \"#utility.yul\":14614:14745   */\n      tag_183\n      jump\t// in\n    tag_313:\n        /* \"#utility.yul\":14606:14745   */\n      swap1\n      pop\n        /* \"#utility.yul\":14333:14752   */\n      swap2\n      swap1\n      pop\n      jump\t// out\n        /* \"#utility.yul\":14758:14924   */\n    tag_184:\n        /* \"#utility.yul\":14898:14916   */\n      0x416c72656164792072657665616c656400000000000000000000000000000000\n        /* \"#utility.yul\":14894:14895   */\n      0x00\n        /* \"#utility.yul\":14886:14892   */\n      dup3\n        /* \"#utility.yul\":14882:14896   */\n      add\n        /* \"#utility.yul\":14875:14917   */\n      mstore\n        /* \"#utility.yul\":14758:14924   */\n      pop\n      jump\t// out\n        /* \"#utility.yul\":14930:15296   */\n    tag_185:\n        /* \"#utility.yul\":15072:15075   */\n      0x00\n        /* \"#utility.yul\":15093:15160   */\n      tag_316\n        /* \"#utility.yul\":15157:15159   */\n      0x10\n        /* \"#utility.yul\":15152:15155   */\n      dup4\n        /* \"#utility.yul\":15093:15160   */\n      tag_161\n      jump\t// in\n    tag_316:\n        /* \"#utility.yul\":15086:15160   */\n      swap2\n      pop\n        /* \"#utility.yul\":15169:15262   */\n      tag_317\n        /* \"#utility.yul\":15258:15261   */\n      dup3\n        /* \"#utility.yul\":15169:15262   */\n      tag_184\n      jump\t// in\n    tag_317:\n        /* \"#utility.yul\":15287:15289   */\n      0x20\n        /* \"#utility.yul\":15282:15285   */\n      dup3\n        /* \"#utility.yul\":15278:15290   */\n      add\n        /* \"#utility.yul\":15271:15290   */\n      swap1\n      pop\n        /* \"#utility.yul\":14930:15296   */\n      swap2\n      swap1\n      pop\n      jump\t// out\n        /* \"#utility.yul\":15302:15721   */\n    tag_138:\n        /* \"#utility.yul\":15468:15472   */\n      0x00\n        /* \"#utility.yul\":15506:15508   */\n      0x20\n        /* \"#utility.yul\":15495:15504   */\n      dup3\n        /* \"#utility.yul\":15491:15509   */\n      add\n        /* \"#utility.yul\":15483:15509   */\n      swap1\n      pop\n        /* \"#utility.yul\":15555:15564   */\n      dup2\n        /* \"#utility.yul\":15549:15553   */\n      dup2\n        /* \"#utility.yul\":15545:15565   */\n      sub\n        /* \"#utility.yul\":15541:15542   */\n      0x00\n        /* \"#utility.yul\":15530:15539   */\n      dup4\n        /* \"#utility.yul\":15526:15543   */\n      add\n        /* \"#utility.yul\":15519:15566   */\n      mstore\n        /* \"#utility.yul\":15583:15714   */\n      tag_319\n        /* \"#utility.yul\":15709:15713   */\n      dup2\n        /* \"#utility.yul\":15583:15714   */\n      tag_185\n      jump\t// in\n    tag_319:\n        /* \"#utility.yul\":15575:15714   */\n      swap1\n      pop\n        /* \"#utility.yul\":15302:15721   */\n      swap2\n      swap1\n      pop\n      jump\t// out\n        /* \"#utility.yul\":15727:15806   */\n    tag_186:\n        /* \"#utility.yul\":15766:15773   */\n      0x00\n        /* \"#utility.yul\":15795:15800   */\n      dup2\n        /* \"#utility.yul\":15784:15800   */\n      swap1\n      pop\n        /* \"#utility.yul\":15727:15806   */\n      swap2\n      swap1\n      pop\n      jump\t// out\n        /* \"#utility.yul\":15812:15969   */\n    tag_187:\n        /* \"#utility.yul\":15917:15962   */\n      tag_322\n        /* \"#utility.yul\":15937:15961   */\n      tag_323\n        /* \"#utility.yul\":15955:15960   */\n      dup3\n        /* \"#utility.yul\":15937:15961   */\n      tag_144\n      jump\t// in\n    tag_323:\n        /* \"#utility.yul\":15917:15962   */\n      tag_186\n      jump\t// in\n    tag_322:\n        /* \"#utility.yul\":15912:15915   */\n      dup3\n        /* \"#utility.yul\":15905:15963   */\n      mstore\n        /* \"#utility.yul\":15812:15969   */\n      pop\n      pop\n      jump\t// out\n        /* \"#utility.yul\":15975:16231   */\n    tag_140:\n        /* \"#utility.yul\":16087:16090   */\n      0x00\n        /* \"#utility.yul\":16102:16177   */\n      tag_325\n        /* \"#utility.yul\":16173:16176   */\n      dup3\n        /* \"#utility.yul\":16164:16170   */\n      dup5\n        /* \"#utility.yul\":16102:16177   */\n      tag_187\n      jump\t// in\n    tag_325:\n        /* \"#utility.yul\":16202:16204   */\n      0x20\n        /* \"#utility.yul\":16197:16200   */\n      dup3\n        /* \"#utility.yul\":16193:16205   */\n      add\n        /* \"#utility.yul\":16186:16205   */\n      swap2\n      pop\n        /* \"#utility.yul\":16222:16225   */\n      dup2\n        /* \"#utility.yul\":16215:16225   */\n      swap1\n      pop\n        /* \"#utility.yul\":15975:16231   */\n      swap3\n      swap2\n      pop\n      pop\n      jump\t// out\n        /* \"#utility.yul\":16237:16464   */\n    tag_188:\n        /* \"#utility.yul\":16377:16411   */\n      0x596f75206172656e27742072657665616c696e672074686520636f7272656374\n        /* \"#utility.yul\":16373:16374   */\n      0x00\n        /* \"#utility.yul\":16365:16371   */\n      dup3\n        /* \"#utility.yul\":16361:16375   */\n      add\n        /* \"#utility.yul\":16354:16412   */\n      mstore\n        /* \"#utility.yul\":16446:16456   */\n      0x206e756d62657221000000000000000000000000000000000000000000000000\n        /* \"#utility.yul\":16441:16443   */\n      0x20\n        /* \"#utility.yul\":16433:16439   */\n      dup3\n        /* \"#utility.yul\":16429:16444   */\n      add\n        /* \"#utility.yul\":16422:16457   */\n      mstore\n        /* \"#utility.yul\":16237:16464   */\n      pop\n      jump\t// out\n        /* \"#utility.yul\":16470:16836   */\n    tag_189:\n        /* \"#utility.yul\":16612:16615   */\n      0x00\n        /* \"#utility.yul\":16633:16700   */\n      tag_328\n        /* \"#utility.yul\":16697:16699   */\n      0x28\n        /* \"#utility.yul\":16692:16695   */\n      dup4\n        /* \"#utility.yul\":16633:16700   */\n      tag_161\n      jump\t// in\n    tag_328:\n        /* \"#utility.yul\":16626:16700   */\n      swap2\n      pop\n        /* \"#utility.yul\":16709:16802   */\n      tag_329\n        /* \"#utility.yul\":16798:16801   */\n      dup3\n        /* \"#utility.yul\":16709:16802   */\n      tag_188\n      jump\t// in\n    tag_329:\n        /* \"#utility.yul\":16827:16829   */\n      0x40\n        /* \"#utility.yul\":16822:16825   */\n      dup3\n        /* \"#utility.yul\":16818:16830   */\n      add\n        /* \"#utility.yul\":16811:16830   */\n      swap1\n      pop\n        /* \"#utility.yul\":16470:16836   */\n      swap2\n      swap1\n      pop\n      jump\t// out\n        /* \"#utility.yul\":16842:17261   */\n    tag_143:\n        /* \"#utility.yul\":17008:17012   */\n      0x00\n        /* \"#utility.yul\":17046:17048   */\n      0x20\n        /* \"#utility.yul\":17035:17044   */\n      dup3\n        /* \"#utility.yul\":17031:17049   */\n      add\n        /* \"#utility.yul\":17023:17049   */\n      swap1\n      pop\n        /* \"#utility.yul\":17095:17104   */\n      dup2\n        /* \"#utility.yul\":17089:17093   */\n      dup2\n        /* \"#utility.yul\":17085:17105   */\n      sub\n        /* \"#utility.yul\":17081:17082   */\n      0x00\n        /* \"#utility.yul\":17070:17079   */\n      dup4\n        /* \"#utility.yul\":17066:17083   */\n      add\n        /* \"#utility.yul\":17059:17106   */\n      mstore\n        /* \"#utility.yul\":17123:17254   */\n      tag_331\n        /* \"#utility.yul\":17249:17253   */\n      dup2\n        /* \"#utility.yul\":17123:17254   */\n      tag_189\n      jump\t// in\n    tag_331:\n        /* \"#utility.yul\":17115:17254   */\n      swap1\n      pop\n        /* \"#utility.yul\":16842:17261   */\n      swap2\n      swap1\n      pop\n      jump\t// out\n\n    auxdata: 0xa264697066735822122079826cf7d8822d93a952f792138bdd34cdedf2477ff4f6cc67bd59c4f4b82df264736f6c634300081a0033\n}\n",
				"bytecode": {
					"linkReferences": {},
					"object": "608060405234801561000f575f80fd5b506040516116e03803806116e083398181016040528101906100319190610161565b3360015f6101000a81548173ffffffffffffffffffffffffffffffffffffffff021916908373ffffffffffffffffffffffffffffffffffffffff1602179055505f73ad39623a8cd97185755310cec8afdb19fe330d5a90508073ffffffffffffffffffffffffffffffffffffffff1663b1c195156040518163ffffffff1660e01b8152600401602060405180830381865afa1580156100d2573d5f803e3d5ffd5b505050506040513d601f19601f820116820180604052508101906100f6919061019f565b600381905550824261010891906101f7565b6004819055508160045461011c91906101f7565b60058190555050505061022a565b5f80fd5b5f819050919050565b6101408161012e565b811461014a575f80fd5b50565b5f8151905061015b81610137565b92915050565b5f80604083850312156101775761017661012a565b5b5f6101848582860161014d565b92505060206101958582860161014d565b9150509250929050565b5f602082840312156101b4576101b361012a565b5b5f6101c18482850161014d565b91505092915050565b7f4e487b71000000000000000000000000000000000000000000000000000000005f52601160045260245ffd5b5f6102018261012e565b915061020c8361012e565b9250828201905080821115610224576102236101ca565b5b92915050565b6114a9806102375f395ff3fe6080604052600436106100c1575f3560e01c80634018f2561161007e578063872fd93911610058578063872fd9391461022d578063a0994c4714610269578063dfbf53ae14610293578063fe7d567d146102bd576100c1565b80634018f256146101c55780635d495aea1461020157806370740ac914610217576100c1565b806309736bc3146100c557806311676fed146100ef57806312065fe014610119578063129a4202146101435780632f0e23fb1461015f578063365b98b214610189575b5f80fd5b3480156100d0575f80fd5b506100d96102e5565b6040516100e69190610c37565b60405180910390f35b3480156100fa575f80fd5b506101036102eb565b6040516101109190610c37565b60405180910390f35b348015610124575f80fd5b5061012d6102f1565b60405161013a9190610c37565b60405180910390f35b61015d60048036038101906101589190610c87565b6102f8565b005b34801561016a575f80fd5b506101736105da565b6040516101809190610c37565b60405180910390f35b348015610194575f80fd5b506101af60048036038101906101aa9190610cdc565b6105e0565b6040516101bc9190610d46565b60405180910390f35b3480156101d0575f80fd5b506101eb60048036038101906101e69190610d9a565b61061a565b6040516101f89190610dd4565b60405180910390f35b34801561020c575f80fd5b5061021561062f565b005b348015610222575f80fd5b5061022b6108b4565b005b348015610238575f80fd5b50610253600480360381019061024e9190610d9a565b6109b1565b6040516102609190610c37565b60405180910390f35b348015610274575f80fd5b5061027d6109c6565b60405161028a9190610c37565b60405180910390f35b34801561029e575f80fd5b506102a76109cc565b6040516102b49190610d46565b60405180910390f35b3480156102c8575f80fd5b506102e360048036038101906102de9190610cdc565b6109f1565b005b60055481565b60085481565b5f47905090565b60015f9054906101000a900473ffffffffffffffffffffffffffffffffffffffff1673ffffffffffffffffffffffffffffffffffffffff163373ffffffffffffffffffffffffffffffffffffffff1603610387576040517f08c379a000000000000000000000000000000000000000000000000000000000815260040161037e90610e47565b60405180910390fd5b60045442106103cb576040517f08c379a00000000000000000000000000000000000000000000000000000000081526004016103c290610ed5565b60405180910390fd5b600354341015610410576040517f08c379a000000000000000000000000000000000000000000000000000000000815260040161040790610f3d565b60405180910390fd5b5f801b60065f3373ffffffffffffffffffffffffffffffffffffffff1673ffffffffffffffffffffffffffffffffffffffff1681526020019081526020015f205414610491576040517f08c379a000000000000000000000000000000000000000000000000000000000815260040161048890610fa5565b60405180910390fd5b5f801b81036104d5576040517f08c379a00000000000000000000000000000000000000000000000000000000081526004016104cc90611033565b60405180910390fd5b600354341115610536575f600354346104ee919061107e565b90503373ffffffffffffffffffffffffffffffffffffffff166108fc8290811502906040515f60405180830381858888f19350505050158015610533573d5f803e3d5ffd5b50505b8060065f3373ffffffffffffffffffffffffffffffffffffffff1673ffffffffffffffffffffffffffffffffffffffff1681526020019081526020015f20819055505f33908060018154018082558091505060019003905f5260205f20015f9091909190916101000a81548173ffffffffffffffffffffffffffffffffffffffff021916908373ffffffffffffffffffffffffffffffffffffffff16021790555050565b60045481565b5f81815481106105ee575f80fd5b905f5260205f20015f915054906101000a900473ffffffffffffffffffffffffffffffffffffffff1681565b6006602052805f5260405f205f915090505481565b3373ffffffffffffffffffffffffffffffffffffffff1660015f9054906101000a900473ffffffffffffffffffffffffffffffffffffffff1673ffffffffffffffffffffffffffffffffffffffff16146106be576040517f08c379a00000000000000000000000000000000000000000000000000000000081526004016106b5906110fb565b60405180910390fd5b600554421015610703576040517f08c379a00000000000000000000000000000000000000000000000000000000081526004016106fa90611163565b60405180910390fd5b60075f805f8154811061071957610718611181565b5b905f5260205f20015f9054906101000a900473ffffffffffffffffffffffffffffffffffffffff1673ffffffffffffffffffffffffffffffffffffffff1673ffffffffffffffffffffffffffffffffffffffff1681526020019081526020015f20546008819055505f600190505b5f805490508110156108265760075f8083815481106107a9576107a8611181565b5b905f5260205f20015f9054906101000a900473ffffffffffffffffffffffffffffffffffffffff1673ffffffffffffffffffffffffffffffffffffffff1673ffffffffffffffffffffffffffffffffffffffff1681526020019081526020015f205460085f82825418925050819055508080600101915050610787565b505f808054905060085461083a91906111db565b8154811061084b5761084a611181565b5b905f5260205f20015f9054906101000a900473ffffffffffffffffffffffffffffffffffffffff1660025f6101000a81548173ffffffffffffffffffffffffffffffffffffffff021916908373ffffffffffffffffffffffffffffffffffffffff160217905550565b60025f9054906101000a900473ffffffffffffffffffffffffffffffffffffffff1673ffffffffffffffffffffffffffffffffffffffff163373ffffffffffffffffffffffffffffffffffffffff1614610943576040517f08c379a000000000000000000000000000000000000000000000000000000000815260040161093a90611255565b60405180910390fd5b60025f9054906101000a900473ffffffffffffffffffffffffffffffffffffffff1673ffffffffffffffffffffffffffffffffffffffff166108fc6109866102f1565b90811502906040515f60405180830381858888f193505050501580156109ae573d5f803e3d5ffd5b50565b6007602052805f5260405f205f915090505481565b60035481565b60025f9054906101000a900473ffffffffffffffffffffffffffffffffffffffff1681565b6005544210610a35576040517f08c379a0000000000000000000000000000000000000000000000000000000008152600401610a2c906112bd565b60405180910390fd5b5f801b60065f3373ffffffffffffffffffffffffffffffffffffffff1673ffffffffffffffffffffffffffffffffffffffff1681526020019081526020015f205403610ab6576040517f08c379a0000000000000000000000000000000000000000000000000000000008152600401610aad90611325565b60405180910390fd5b5f60075f3373ffffffffffffffffffffffffffffffffffffffff1673ffffffffffffffffffffffffffffffffffffffff1681526020019081526020015f205414610b35576040517f08c379a0000000000000000000000000000000000000000000000000000000008152600401610b2c9061138d565b60405180910390fd5b80604051602001610b4691906113cb565b6040516020818303038152906040528051906020012060065f3373ffffffffffffffffffffffffffffffffffffffff1673ffffffffffffffffffffffffffffffffffffffff1681526020019081526020015f205414610bda576040517f08c379a0000000000000000000000000000000000000000000000000000000008152600401610bd190611455565b60405180910390fd5b8060075f3373ffffffffffffffffffffffffffffffffffffffff1673ffffffffffffffffffffffffffffffffffffffff1681526020019081526020015f208190555050565b5f819050919050565b610c3181610c1f565b82525050565b5f602082019050610c4a5f830184610c28565b92915050565b5f80fd5b5f819050919050565b610c6681610c54565b8114610c70575f80fd5b50565b5f81359050610c8181610c5d565b92915050565b5f60208284031215610c9c57610c9b610c50565b5b5f610ca984828501610c73565b91505092915050565b610cbb81610c1f565b8114610cc5575f80fd5b50565b5f81359050610cd681610cb2565b92915050565b5f60208284031215610cf157610cf0610c50565b5b5f610cfe84828501610cc8565b91505092915050565b5f73ffffffffffffffffffffffffffffffffffffffff82169050919050565b5f610d3082610d07565b9050919050565b610d4081610d26565b82525050565b5f602082019050610d595f830184610d37565b92915050565b5f610d6982610d07565b9050919050565b610d7981610d5f565b8114610d83575f80fd5b50565b5f81359050610d9481610d70565b92915050565b5f60208284031215610daf57610dae610c50565b5b5f610dbc84828501610d86565b91505092915050565b610dce81610c54565b82525050565b5f602082019050610de75f830184610dc5565b92915050565b5f82825260208201905092915050565b7f4f776e65722063616e6e6f7420706c61792100000000000000000000000000005f82015250565b5f610e31601283610ded565b9150610e3c82610dfd565b602082019050919050565b5f6020820190508181035f830152610e5e81610e25565b9050919050565b7f4c6f747465727920636f6e747269627574696f6e20706572696f64206973206f5f8201527f7665722100000000000000000000000000000000000000000000000000000000602082015250565b5f610ebf602483610ded565b9150610eca82610e65565b604082019050919050565b5f6020820190508181035f830152610eec81610eb3565b9050919050565b7f5469636b65742066656520697320696e73756666696369656e740000000000005f82015250565b5f610f27601a83610ded565b9150610f3282610ef3565b602082019050919050565b5f6020820190508181035f830152610f5481610f1b565b9050919050565b7f416c7265616479207075726368617365642061207469636b65740000000000005f82015250565b5f610f8f601a83610ded565b9150610f9a82610f5b565b602082019050919050565b5f6020820190508181035f830152610fbc81610f83565b9050919050565b7f48617368206d7573742062652070726f766964656420746f20627579206120745f8201527f69636b6574000000000000000000000000000000000000000000000000000000602082015250565b5f61101d602583610ded565b915061102882610fc3565b604082019050919050565b5f6020820190508181035f83015261104a81611011565b9050919050565b7f4e487b71000000000000000000000000000000000000000000000000000000005f52601160045260245ffd5b5f61108882610c1f565b915061109383610c1f565b92508282039050818111156110ab576110aa611051565b5b92915050565b7f596f7520617265206e6f7420746865206f776e657200000000000000000000005f82015250565b5f6110e5601583610ded565b91506110f0826110b1565b602082019050919050565b5f6020820190508181035f830152611112816110d9565b9050919050565b7f44656369646520737461676520686173206e6f7420656e6465640000000000005f82015250565b5f61114d601a83610ded565b915061115882611119565b602082019050919050565b5f6020820190508181035f83015261117a81611141565b9050919050565b7f4e487b71000000000000000000000000000000000000000000000000000000005f52603260045260245ffd5b7f4e487b71000000000000000000000000000000000000000000000000000000005f52601260045260245ffd5b5f6111e582610c1f565b91506111f083610c1f565b925082611200576111ff6111ae565b5b828206905092915050565b7f596f7520617265206e6f74207468652077696e6e6572000000000000000000005f82015250565b5f61123f601683610ded565b915061124a8261120b565b602082019050919050565b5f6020820190508181035f83015261126c81611233565b9050919050565b7f4c6f74746572792072657665616c20706572696f64206973206f7665722100005f82015250565b5f6112a7601e83610ded565b91506112b282611273565b602082019050919050565b5f6020820190508181035f8301526112d48161129b565b9050919050565b7f4e6f2068617368207375626d69747465640000000000000000000000000000005f82015250565b5f61130f601183610ded565b915061131a826112db565b602082019050919050565b5f6020820190508181035f83015261133c81611303565b9050919050565b7f416c72656164792072657665616c6564000000000000000000000000000000005f82015250565b5f611377601083610ded565b915061138282611343565b602082019050919050565b5f6020820190508181035f8301526113a48161136b565b9050919050565b5f819050919050565b6113c56113c082610c1f565b6113ab565b82525050565b5f6113d682846113b4565b60208201915081905092915050565b7f596f75206172656e27742072657665616c696e672074686520636f72726563745f8201527f206e756d62657221000000000000000000000000000000000000000000000000602082015250565b5f61143f602883610ded565b915061144a826113e5565b604082019050919050565b5f6020820190508181035f83015261146c81611433565b905091905056fea264697066735822122079826cf7d8822d93a952f792138bdd34cdedf2477ff4f6cc67bd59c4f4b82df264736f6c634300081a0033",
					"opcodes": "PUSH1 0x80 PUSH1 0x40 MSTORE CALLVALUE DUP1 ISZERO PUSH2 0xF JUMPI PUSH0 DUP1 REVERT JUMPDEST POP PUSH1 0x40 MLOAD PUSH2 0x16E0 CODESIZE SUB DUP1 PUSH2 0x16E0 DUP4 CODECOPY DUP2 DUP2 ADD PUSH1 0x40 MSTORE DUP2 ADD SWAP1 PUSH2 0x31 SWAP2 SWAP1 PUSH2 0x161 JUMP JUMPDEST CALLER PUSH1 0x1 PUSH0 PUSH2 0x100 EXP DUP2 SLOAD DUP2 PUSH20 0xFFFFFFFFFFFFFFFFFFFFFFFFFFFFFFFFFFFFFFFF MUL NOT AND SWAP1 DUP4 PUSH20 0xFFFFFFFFFFFFFFFFFFFFFFFFFFFFFFFFFFFFFFFF AND MUL OR SWAP1 SSTORE POP PUSH0 PUSH20 0xAD39623A8CD97185755310CEC8AFDB19FE330D5A SWAP1 POP DUP1 PUSH20 0xFFFFFFFFFFFFFFFFFFFFFFFFFFFFFFFFFFFFFFFF AND PUSH4 0xB1C19515 PUSH1 0x40 MLOAD DUP2 PUSH4 0xFFFFFFFF AND PUSH1 0xE0 SHL DUP2 MSTORE PUSH1 0x4 ADD PUSH1 0x20 PUSH1 0x40 MLOAD DUP1 DUP4 SUB DUP2 DUP7 GAS STATICCALL ISZERO DUP1 ISZERO PUSH2 0xD2 JUMPI RETURNDATASIZE PUSH0 DUP1 RETURNDATACOPY RETURNDATASIZE PUSH0 REVERT JUMPDEST POP POP POP POP PUSH1 0x40 MLOAD RETURNDATASIZE PUSH1 0x1F NOT PUSH1 0x1F DUP3 ADD AND DUP3 ADD DUP1 PUSH1 0x40 MSTORE POP DUP2 ADD SWAP1 PUSH2 0xF6 SWAP2 SWAP1 PUSH2 0x19F JUMP JUMPDEST PUSH1 0x3 DUP2 SWAP1 SSTORE POP DUP3 TIMESTAMP PUSH2 0x108 SWAP2 SWAP1 PUSH2 0x1F7 JUMP JUMPDEST PUSH1 0x4 DUP2 SWAP1 SSTORE POP DUP2 PUSH1 0x4 SLOAD PUSH2 0x11C SWAP2 SWAP1 PUSH2 0x1F7 JUMP JUMPDEST PUSH1 0x5 DUP2 SWAP1 SSTORE POP POP POP POP PUSH2 0x22A JUMP JUMPDEST PUSH0 DUP1 REVERT JUMPDEST PUSH0 DUP2 SWAP1 POP SWAP2 SWAP1 POP JUMP JUMPDEST PUSH2 0x140 DUP2 PUSH2 0x12E JUMP JUMPDEST DUP2 EQ PUSH2 0x14A JUMPI PUSH0 DUP1 REVERT JUMPDEST POP JUMP JUMPDEST PUSH0 DUP2 MLOAD SWAP1 POP PUSH2 0x15B DUP2 PUSH2 0x137 JUMP JUMPDEST SWAP3 SWAP2 POP POP JUMP JUMPDEST PUSH0 DUP1 PUSH1 0x40 DUP4 DUP6 SUB SLT ISZERO PUSH2 0x177 JUMPI PUSH2 0x176 PUSH2 0x12A JUMP JUMPDEST JUMPDEST PUSH0 PUSH2 0x184 DUP6 DUP3 DUP7 ADD PUSH2 0x14D JUMP JUMPDEST SWAP3 POP POP PUSH1 0x20 PUSH2 0x195 DUP6 DUP3 DUP7 ADD PUSH2 0x14D JUMP JUMPDEST SWAP2 POP POP SWAP3 POP SWAP3 SWAP1 POP JUMP JUMPDEST PUSH0 PUSH1 0x20 DUP3 DUP5 SUB SLT ISZERO PUSH2 0x1B4 JUMPI PUSH2 0x1B3 PUSH2 0x12A JUMP JUMPDEST JUMPDEST PUSH0 PUSH2 0x1C1 DUP5 DUP3 DUP6 ADD PUSH2 0x14D JUMP JUMPDEST SWAP2 POP POP SWAP3 SWAP2 POP POP JUMP JUMPDEST PUSH32 0x4E487B7100000000000000000000000000000000000000000000000000000000 PUSH0 MSTORE PUSH1 0x11 PUSH1 0x4 MSTORE PUSH1 0x24 PUSH0 REVERT JUMPDEST PUSH0 PUSH2 0x201 DUP3 PUSH2 0x12E JUMP JUMPDEST SWAP2 POP PUSH2 0x20C DUP4 PUSH2 0x12E JUMP JUMPDEST SWAP3 POP DUP3 DUP3 ADD SWAP1 POP DUP1 DUP3 GT ISZERO PUSH2 0x224 JUMPI PUSH2 0x223 PUSH2 0x1CA JUMP JUMPDEST JUMPDEST SWAP3 SWAP2 POP POP JUMP JUMPDEST PUSH2 0x14A9 DUP1 PUSH2 0x237 PUSH0 CODECOPY PUSH0 RETURN INVALID PUSH1 0x80 PUSH1 0x40 MSTORE PUSH1 0x4 CALLDATASIZE LT PUSH2 0xC1 JUMPI PUSH0 CALLDATALOAD PUSH1 0xE0 SHR DUP1 PUSH4 0x4018F256 GT PUSH2 0x7E JUMPI DUP1 PUSH4 0x872FD939 GT PUSH2 0x58 JUMPI DUP1 PUSH4 0x872FD939 EQ PUSH2 0x22D JUMPI DUP1 PUSH4 0xA0994C47 EQ PUSH2 0x269 JUMPI DUP1 PUSH4 0xDFBF53AE EQ PUSH2 0x293 JUMPI DUP1 PUSH4 0xFE7D567D EQ PUSH2 0x2BD JUMPI PUSH2 0xC1 JUMP JUMPDEST DUP1 PUSH4 0x4018F256 EQ PUSH2 0x1C5 JUMPI DUP1 PUSH4 0x5D495AEA EQ PUSH2 0x201 JUMPI DUP1 PUSH4 0x70740AC9 EQ PUSH2 0x217 JUMPI PUSH2 0xC1 JUMP JUMPDEST DUP1 PUSH4 0x9736BC3 EQ PUSH2 0xC5 JUMPI DUP1 PUSH4 0x11676FED EQ PUSH2 0xEF JUMPI DUP1 PUSH4 0x12065FE0 EQ PUSH2 0x119 JUMPI DUP1 PUSH4 0x129A4202 EQ PUSH2 0x143 JUMPI DUP1 PUSH4 0x2F0E23FB EQ PUSH2 0x15F JUMPI DUP1 PUSH4 0x365B98B2 EQ PUSH2 0x189 JUMPI JUMPDEST PUSH0 DUP1 REVERT JUMPDEST CALLVALUE DUP1 ISZERO PUSH2 0xD0 JUMPI PUSH0 DUP1 REVERT JUMPDEST POP PUSH2 0xD9 PUSH2 0x2E5 JUMP JUMPDEST PUSH1 0x40 MLOAD PUSH2 0xE6 SWAP2 SWAP1 PUSH2 0xC37 JUMP JUMPDEST PUSH1 0x40 MLOAD DUP1 SWAP2 SUB SWAP1 RETURN JUMPDEST CALLVALUE DUP1 ISZERO PUSH2 0xFA JUMPI PUSH0 DUP1 REVERT JUMPDEST POP PUSH2 0x103 PUSH2 0x2EB JUMP JUMPDEST PUSH1 0x40 MLOAD PUSH2 0x110 SWAP2 SWAP1 PUSH2 0xC37 JUMP JUMPDEST PUSH1 0x40 MLOAD DUP1 SWAP2 SUB SWAP1 RETURN JUMPDEST CALLVALUE DUP1 ISZERO PUSH2 0x124 JUMPI PUSH0 DUP1 REVERT JUMPDEST POP PUSH2 0x12D PUSH2 0x2F1 JUMP JUMPDEST PUSH1 0x40 MLOAD PUSH2 0x13A SWAP2 SWAP1 PUSH2 0xC37 JUMP JUMPDEST PUSH1 0x40 MLOAD DUP1 SWAP2 SUB SWAP1 RETURN JUMPDEST PUSH2 0x15D PUSH1 0x4 DUP1 CALLDATASIZE SUB DUP2 ADD SWAP1 PUSH2 0x158 SWAP2 SWAP1 PUSH2 0xC87 JUMP JUMPDEST PUSH2 0x2F8 JUMP JUMPDEST STOP JUMPDEST CALLVALUE DUP1 ISZERO PUSH2 0x16A JUMPI PUSH0 DUP1 REVERT JUMPDEST POP PUSH2 0x173 PUSH2 0x5DA JUMP JUMPDEST PUSH1 0x40 MLOAD PUSH2 0x180 SWAP2 SWAP1 PUSH2 0xC37 JUMP JUMPDEST PUSH1 0x40 MLOAD DUP1 SWAP2 SUB SWAP1 RETURN JUMPDEST CALLVALUE DUP1 ISZERO PUSH2 0x194 JUMPI PUSH0 DUP1 REVERT JUMPDEST POP PUSH2 0x1AF PUSH1 0x4 DUP1 CALLDATASIZE SUB DUP2 ADD SWAP1 PUSH2 0x1AA SWAP2 SWAP1 PUSH2 0xCDC JUMP JUMPDEST PUSH2 0x5E0 JUMP JUMPDEST PUSH1 0x40 MLOAD PUSH2 0x1BC SWAP2 SWAP1 PUSH2 0xD46 JUMP JUMPDEST PUSH1 0x40 MLOAD DUP1 SWAP2 SUB SWAP1 RETURN JUMPDEST CALLVALUE DUP1 ISZERO PUSH2 0x1D0 JUMPI PUSH0 DUP1 REVERT JUMPDEST POP PUSH2 0x1EB PUSH1 0x4 DUP1 CALLDATASIZE SUB DUP2 ADD SWAP1 PUSH2 0x1E6 SWAP2 SWAP1 PUSH2 0xD9A JUMP JUMPDEST PUSH2 0x61A JUMP JUMPDEST PUSH1 0x40 MLOAD PUSH2 0x1F8 SWAP2 SWAP1 PUSH2 0xDD4 JUMP JUMPDEST PUSH1 0x40 MLOAD DUP1 SWAP2 SUB SWAP1 RETURN JUMPDEST CALLVALUE DUP1 ISZERO PUSH2 0x20C JUMPI PUSH0 DUP1 REVERT JUMPDEST POP PUSH2 0x215 PUSH2 0x62F JUMP JUMPDEST STOP JUMPDEST CALLVALUE DUP1 ISZERO PUSH2 0x222 JUMPI PUSH0 DUP1 REVERT JUMPDEST POP PUSH2 0x22B PUSH2 0x8B4 JUMP JUMPDEST STOP JUMPDEST CALLVALUE DUP1 ISZERO PUSH2 0x238 JUMPI PUSH0 DUP1 REVERT JUMPDEST POP PUSH2 0x253 PUSH1 0x4 DUP1 CALLDATASIZE SUB DUP2 ADD SWAP1 PUSH2 0x24E SWAP2 SWAP1 PUSH2 0xD9A JUMP JUMPDEST PUSH2 0x9B1 JUMP JUMPDEST PUSH1 0x40 MLOAD PUSH2 0x260 SWAP2 SWAP1 PUSH2 0xC37 JUMP JUMPDEST PUSH1 0x40 MLOAD DUP1 SWAP2 SUB SWAP1 RETURN JUMPDEST CALLVALUE DUP1 ISZERO PUSH2 0x274 JUMPI PUSH0 DUP1 REVERT JUMPDEST POP PUSH2 0x27D PUSH2 0x9C6 JUMP JUMPDEST PUSH1 0x40 MLOAD PUSH2 0x28A SWAP2 SWAP1 PUSH2 0xC37 JUMP JUMPDEST PUSH1 0x40 MLOAD DUP1 SWAP2 SUB SWAP1 RETURN JUMPDEST CALLVALUE DUP1 ISZERO PUSH2 0x29E JUMPI PUSH0 DUP1 REVERT JUMPDEST POP PUSH2 0x2A7 PUSH2 0x9CC JUMP JUMPDEST PUSH1 0x40 MLOAD PUSH2 0x2B4 SWAP2 SWAP1 PUSH2 0xD46 JUMP JUMPDEST PUSH1 0x40 MLOAD DUP1 SWAP2 SUB SWAP1 RETURN JUMPDEST CALLVALUE DUP1 ISZERO PUSH2 0x2C8 JUMPI PUSH0 DUP1 REVERT JUMPDEST POP PUSH2 0x2E3 PUSH1 0x4 DUP1 CALLDATASIZE SUB DUP2 ADD SWAP1 PUSH2 0x2DE SWAP2 SWAP1 PUSH2 0xCDC JUMP JUMPDEST PUSH2 0x9F1 JUMP JUMPDEST STOP JUMPDEST PUSH1 0x5 SLOAD DUP2 JUMP JUMPDEST PUSH1 0x8 SLOAD DUP2 JUMP JUMPDEST PUSH0 SELFBALANCE SWAP1 POP SWAP1 JUMP JUMPDEST PUSH1 0x1 PUSH0 SWAP1 SLOAD SWAP1 PUSH2 0x100 EXP SWAP1 DIV PUSH20 0xFFFFFFFFFFFFFFFFFFFFFFFFFFFFFFFFFFFFFFFF AND PUSH20 0xFFFFFFFFFFFFFFFFFFFFFFFFFFFFFFFFFFFFFFFF AND CALLER PUSH20 0xFFFFFFFFFFFFFFFFFFFFFFFFFFFFFFFFFFFFFFFF AND SUB PUSH2 0x387 JUMPI PUSH1 0x40 MLOAD PUSH32 0x8C379A000000000000000000000000000000000000000000000000000000000 DUP2 MSTORE PUSH1 0x4 ADD PUSH2 0x37E SWAP1 PUSH2 0xE47 JUMP JUMPDEST PUSH1 0x40 MLOAD DUP1 SWAP2 SUB SWAP1 REVERT JUMPDEST PUSH1 0x4 SLOAD TIMESTAMP LT PUSH2 0x3CB JUMPI PUSH1 0x40 MLOAD PUSH32 0x8C379A000000000000000000000000000000000000000000000000000000000 DUP2 MSTORE PUSH1 0x4 ADD PUSH2 0x3C2 SWAP1 PUSH2 0xED5 JUMP JUMPDEST PUSH1 0x40 MLOAD DUP1 SWAP2 SUB SWAP1 REVERT JUMPDEST PUSH1 0x3 SLOAD CALLVALUE LT ISZERO PUSH2 0x410 JUMPI PUSH1 0x40 MLOAD PUSH32 0x8C379A000000000000000000000000000000000000000000000000000000000 DUP2 MSTORE PUSH1 0x4 ADD PUSH2 0x407 SWAP1 PUSH2 0xF3D JUMP JUMPDEST PUSH1 0x40 MLOAD DUP1 SWAP2 SUB SWAP1 REVERT JUMPDEST PUSH0 DUP1 SHL PUSH1 0x6 PUSH0 CALLER PUSH20 0xFFFFFFFFFFFFFFFFFFFFFFFFFFFFFFFFFFFFFFFF AND PUSH20 0xFFFFFFFFFFFFFFFFFFFFFFFFFFFFFFFFFFFFFFFF AND DUP2 MSTORE PUSH1 0x20 ADD SWAP1 DUP2 MSTORE PUSH1 0x20 ADD PUSH0 KECCAK256 SLOAD EQ PUSH2 0x491 JUMPI PUSH1 0x40 MLOAD PUSH32 0x8C379A000000000000000000000000000000000000000000000000000000000 DUP2 MSTORE PUSH1 0x4 ADD PUSH2 0x488 SWAP1 PUSH2 0xFA5 JUMP JUMPDEST PUSH1 0x40 MLOAD DUP1 SWAP2 SUB SWAP1 REVERT JUMPDEST PUSH0 DUP1 SHL DUP2 SUB PUSH2 0x4D5 JUMPI PUSH1 0x40 MLOAD PUSH32 0x8C379A000000000000000000000000000000000000000000000000000000000 DUP2 MSTORE PUSH1 0x4 ADD PUSH2 0x4CC SWAP1 PUSH2 0x1033 JUMP JUMPDEST PUSH1 0x40 MLOAD DUP1 SWAP2 SUB SWAP1 REVERT JUMPDEST PUSH1 0x3 SLOAD CALLVALUE GT ISZERO PUSH2 0x536 JUMPI PUSH0 PUSH1 0x3 SLOAD CALLVALUE PUSH2 0x4EE SWAP2 SWAP1 PUSH2 0x107E JUMP JUMPDEST SWAP1 POP CALLER PUSH20 0xFFFFFFFFFFFFFFFFFFFFFFFFFFFFFFFFFFFFFFFF AND PUSH2 0x8FC DUP3 SWAP1 DUP2 ISZERO MUL SWAP1 PUSH1 0x40 MLOAD PUSH0 PUSH1 0x40 MLOAD DUP1 DUP4 SUB DUP2 DUP6 DUP9 DUP9 CALL SWAP4 POP POP POP POP ISZERO DUP1 ISZERO PUSH2 0x533 JUMPI RETURNDATASIZE PUSH0 DUP1 RETURNDATACOPY RETURNDATASIZE PUSH0 REVERT JUMPDEST POP POP JUMPDEST DUP1 PUSH1 0x6 PUSH0 CALLER PUSH20 0xFFFFFFFFFFFFFFFFFFFFFFFFFFFFFFFFFFFFFFFF AND PUSH20 0xFFFFFFFFFFFFFFFFFFFFFFFFFFFFFFFFFFFFFFFF AND DUP2 MSTORE PUSH1 0x20 ADD SWAP1 DUP2 MSTORE PUSH1 0x20 ADD PUSH0 KECCAK256 DUP2 SWAP1 SSTORE POP PUSH0 CALLER SWAP1 DUP1 PUSH1 0x1 DUP2 SLOAD ADD DUP1 DUP3 SSTORE DUP1 SWAP2 POP POP PUSH1 0x1 SWAP1 SUB SWAP1 PUSH0 MSTORE PUSH1 0x20 PUSH0 KECCAK256 ADD PUSH0 SWAP1 SWAP2 SWAP1 SWAP2 SWAP1 SWAP2 PUSH2 0x100 EXP DUP2 SLOAD DUP2 PUSH20 0xFFFFFFFFFFFFFFFFFFFFFFFFFFFFFFFFFFFFFFFF MUL NOT AND SWAP1 DUP4 PUSH20 0xFFFFFFFFFFFFFFFFFFFFFFFFFFFFFFFFFFFFFFFF AND MUL OR SWAP1 SSTORE POP POP JUMP JUMPDEST PUSH1 0x4 SLOAD DUP2 JUMP JUMPDEST PUSH0 DUP2 DUP2 SLOAD DUP2 LT PUSH2 0x5EE JUMPI PUSH0 DUP1 REVERT JUMPDEST SWAP1 PUSH0 MSTORE PUSH1 0x20 PUSH0 KECCAK256 ADD PUSH0 SWAP2 POP SLOAD SWAP1 PUSH2 0x100 EXP SWAP1 DIV PUSH20 0xFFFFFFFFFFFFFFFFFFFFFFFFFFFFFFFFFFFFFFFF AND DUP2 JUMP JUMPDEST PUSH1 0x6 PUSH1 0x20 MSTORE DUP1 PUSH0 MSTORE PUSH1 0x40 PUSH0 KECCAK256 PUSH0 SWAP2 POP SWAP1 POP SLOAD DUP2 JUMP JUMPDEST CALLER PUSH20 0xFFFFFFFFFFFFFFFFFFFFFFFFFFFFFFFFFFFFFFFF AND PUSH1 0x1 PUSH0 SWAP1 SLOAD SWAP1 PUSH2 0x100 EXP SWAP1 DIV PUSH20 0xFFFFFFFFFFFFFFFFFFFFFFFFFFFFFFFFFFFFFFFF AND PUSH20 0xFFFFFFFFFFFFFFFFFFFFFFFFFFFFFFFFFFFFFFFF AND EQ PUSH2 0x6BE JUMPI PUSH1 0x40 MLOAD PUSH32 0x8C379A000000000000000000000000000000000000000000000000000000000 DUP2 MSTORE PUSH1 0x4 ADD PUSH2 0x6B5 SWAP1 PUSH2 0x10FB JUMP JUMPDEST PUSH1 0x40 MLOAD DUP1 SWAP2 SUB SWAP1 REVERT JUMPDEST PUSH1 0x5 SLOAD TIMESTAMP LT ISZERO PUSH2 0x703 JUMPI PUSH1 0x40 MLOAD PUSH32 0x8C379A000000000000000000000000000000000000000000000000000000000 DUP2 MSTORE PUSH1 0x4 ADD PUSH2 0x6FA SWAP1 PUSH2 0x1163 JUMP JUMPDEST PUSH1 0x40 MLOAD DUP1 SWAP2 SUB SWAP1 REVERT JUMPDEST PUSH1 0x7 PUSH0 DUP1 PUSH0 DUP2 SLOAD DUP2 LT PUSH2 0x719 JUMPI PUSH2 0x718 PUSH2 0x1181 JUMP JUMPDEST JUMPDEST SWAP1 PUSH0 MSTORE PUSH1 0x20 PUSH0 KECCAK256 ADD PUSH0 SWAP1 SLOAD SWAP1 PUSH2 0x100 EXP SWAP1 DIV PUSH20 0xFFFFFFFFFFFFFFFFFFFFFFFFFFFFFFFFFFFFFFFF AND PUSH20 0xFFFFFFFFFFFFFFFFFFFFFFFFFFFFFFFFFFFFFFFF AND PUSH20 0xFFFFFFFFFFFFFFFFFFFFFFFFFFFFFFFFFFFFFFFF AND DUP2 MSTORE PUSH1 0x20 ADD SWAP1 DUP2 MSTORE PUSH1 0x20 ADD PUSH0 KECCAK256 SLOAD PUSH1 0x8 DUP2 SWAP1 SSTORE POP PUSH0 PUSH1 0x1 SWAP1 POP JUMPDEST PUSH0 DUP1 SLOAD SWAP1 POP DUP2 LT ISZERO PUSH2 0x826 JUMPI PUSH1 0x7 PUSH0 DUP1 DUP4 DUP2 SLOAD DUP2 LT PUSH2 0x7A9 JUMPI PUSH2 0x7A8 PUSH2 0x1181 JUMP JUMPDEST JUMPDEST SWAP1 PUSH0 MSTORE PUSH1 0x20 PUSH0 KECCAK256 ADD PUSH0 SWAP1 SLOAD SWAP1 PUSH2 0x100 EXP SWAP1 DIV PUSH20 0xFFFFFFFFFFFFFFFFFFFFFFFFFFFFFFFFFFFFFFFF AND PUSH20 0xFFFFFFFFFFFFFFFFFFFFFFFFFFFFFFFFFFFFFFFF AND PUSH20 0xFFFFFFFFFFFFFFFFFFFFFFFFFFFFFFFFFFFFFFFF AND DUP2 MSTORE PUSH1 0x20 ADD SWAP1 DUP2 MSTORE PUSH1 0x20 ADD PUSH0 KECCAK256 SLOAD PUSH1 0x8 PUSH0 DUP3 DUP3 SLOAD XOR SWAP3 POP POP DUP2 SWAP1 SSTORE POP DUP1 DUP1 PUSH1 0x1 ADD SWAP2 POP POP PUSH2 0x787 JUMP JUMPDEST POP PUSH0 DUP1 DUP1 SLOAD SWAP1 POP PUSH1 0x8 SLOAD PUSH2 0x83A SWAP2 SWAP1 PUSH2 0x11DB JUMP JUMPDEST DUP2 SLOAD DUP2 LT PUSH2 0x84B JUMPI PUSH2 0x84A PUSH2 0x1181 JUMP JUMPDEST JUMPDEST SWAP1 PUSH0 MSTORE PUSH1 0x20 PUSH0 KECCAK256 ADD PUSH0 SWAP1 SLOAD SWAP1 PUSH2 0x100 EXP SWAP1 DIV PUSH20 0xFFFFFFFFFFFFFFFFFFFFFFFFFFFFFFFFFFFFFFFF AND PUSH1 0x2 PUSH0 PUSH2 0x100 EXP DUP2 SLOAD DUP2 PUSH20 0xFFFFFFFFFFFFFFFFFFFFFFFFFFFFFFFFFFFFFFFF MUL NOT AND SWAP1 DUP4 PUSH20 0xFFFFFFFFFFFFFFFFFFFFFFFFFFFFFFFFFFFFFFFF AND MUL OR SWAP1 SSTORE POP JUMP JUMPDEST PUSH1 0x2 PUSH0 SWAP1 SLOAD SWAP1 PUSH2 0x100 EXP SWAP1 DIV PUSH20 0xFFFFFFFFFFFFFFFFFFFFFFFFFFFFFFFFFFFFFFFF AND PUSH20 0xFFFFFFFFFFFFFFFFFFFFFFFFFFFFFFFFFFFFFFFF AND CALLER PUSH20 0xFFFFFFFFFFFFFFFFFFFFFFFFFFFFFFFFFFFFFFFF AND EQ PUSH2 0x943 JUMPI PUSH1 0x40 MLOAD PUSH32 0x8C379A000000000000000000000000000000000000000000000000000000000 DUP2 MSTORE PUSH1 0x4 ADD PUSH2 0x93A SWAP1 PUSH2 0x1255 JUMP JUMPDEST PUSH1 0x40 MLOAD DUP1 SWAP2 SUB SWAP1 REVERT JUMPDEST PUSH1 0x2 PUSH0 SWAP1 SLOAD SWAP1 PUSH2 0x100 EXP SWAP1 DIV PUSH20 0xFFFFFFFFFFFFFFFFFFFFFFFFFFFFFFFFFFFFFFFF AND PUSH20 0xFFFFFFFFFFFFFFFFFFFFFFFFFFFFFFFFFFFFFFFF AND PUSH2 0x8FC PUSH2 0x986 PUSH2 0x2F1 JUMP JUMPDEST SWAP1 DUP2 ISZERO MUL SWAP1 PUSH1 0x40 MLOAD PUSH0 PUSH1 0x40 MLOAD DUP1 DUP4 SUB DUP2 DUP6 DUP9 DUP9 CALL SWAP4 POP POP POP POP ISZERO DUP1 ISZERO PUSH2 0x9AE JUMPI RETURNDATASIZE PUSH0 DUP1 RETURNDATACOPY RETURNDATASIZE PUSH0 REVERT JUMPDEST POP JUMP JUMPDEST PUSH1 0x7 PUSH1 0x20 MSTORE DUP1 PUSH0 MSTORE PUSH1 0x40 PUSH0 KECCAK256 PUSH0 SWAP2 POP SWAP1 POP SLOAD DUP2 JUMP JUMPDEST PUSH1 0x3 SLOAD DUP2 JUMP JUMPDEST PUSH1 0x2 PUSH0 SWAP1 SLOAD SWAP1 PUSH2 0x100 EXP SWAP1 DIV PUSH20 0xFFFFFFFFFFFFFFFFFFFFFFFFFFFFFFFFFFFFFFFF AND DUP2 JUMP JUMPDEST PUSH1 0x5 SLOAD TIMESTAMP LT PUSH2 0xA35 JUMPI PUSH1 0x40 MLOAD PUSH32 0x8C379A000000000000000000000000000000000000000000000000000000000 DUP2 MSTORE PUSH1 0x4 ADD PUSH2 0xA2C SWAP1 PUSH2 0x12BD JUMP JUMPDEST PUSH1 0x40 MLOAD DUP1 SWAP2 SUB SWAP1 REVERT JUMPDEST PUSH0 DUP1 SHL PUSH1 0x6 PUSH0 CALLER PUSH20 0xFFFFFFFFFFFFFFFFFFFFFFFFFFFFFFFFFFFFFFFF AND PUSH20 0xFFFFFFFFFFFFFFFFFFFFFFFFFFFFFFFFFFFFFFFF AND DUP2 MSTORE PUSH1 0x20 ADD SWAP1 DUP2 MSTORE PUSH1 0x20 ADD PUSH0 KECCAK256 SLOAD SUB PUSH2 0xAB6 JUMPI PUSH1 0x40 MLOAD PUSH32 0x8C379A000000000000000000000000000000000000000000000000000000000 DUP2 MSTORE PUSH1 0x4 ADD PUSH2 0xAAD SWAP1 PUSH2 0x1325 JUMP JUMPDEST PUSH1 0x40 MLOAD DUP1 SWAP2 SUB SWAP1 REVERT JUMPDEST PUSH0 PUSH1 0x7 PUSH0 CALLER PUSH20 0xFFFFFFFFFFFFFFFFFFFFFFFFFFFFFFFFFFFFFFFF AND PUSH20 0xFFFFFFFFFFFFFFFFFFFFFFFFFFFFFFFFFFFFFFFF AND DUP2 MSTORE PUSH1 0x20 ADD SWAP1 DUP2 MSTORE PUSH1 0x20 ADD PUSH0 KECCAK256 SLOAD EQ PUSH2 0xB35 JUMPI PUSH1 0x40 MLOAD PUSH32 0x8C379A000000000000000000000000000000000000000000000000000000000 DUP2 MSTORE PUSH1 0x4 ADD PUSH2 0xB2C SWAP1 PUSH2 0x138D JUMP JUMPDEST PUSH1 0x40 MLOAD DUP1 SWAP2 SUB SWAP1 REVERT JUMPDEST DUP1 PUSH1 0x40 MLOAD PUSH1 0x20 ADD PUSH2 0xB46 SWAP2 SWAP1 PUSH2 0x13CB JUMP JUMPDEST PUSH1 0x40 MLOAD PUSH1 0x20 DUP2 DUP4 SUB SUB DUP2 MSTORE SWAP1 PUSH1 0x40 MSTORE DUP1 MLOAD SWAP1 PUSH1 0x20 ADD KECCAK256 PUSH1 0x6 PUSH0 CALLER PUSH20 0xFFFFFFFFFFFFFFFFFFFFFFFFFFFFFFFFFFFFFFFF AND PUSH20 0xFFFFFFFFFFFFFFFFFFFFFFFFFFFFFFFFFFFFFFFF AND DUP2 MSTORE PUSH1 0x20 ADD SWAP1 DUP2 MSTORE PUSH1 0x20 ADD PUSH0 KECCAK256 SLOAD EQ PUSH2 0xBDA JUMPI PUSH1 0x40 MLOAD PUSH32 0x8C379A000000000000000000000000000000000000000000000000000000000 DUP2 MSTORE PUSH1 0x4 ADD PUSH2 0xBD1 SWAP1 PUSH2 0x1455 JUMP JUMPDEST PUSH1 0x40 MLOAD DUP1 SWAP2 SUB SWAP1 REVERT JUMPDEST DUP1 PUSH1 0x7 PUSH0 CALLER PUSH20 0xFFFFFFFFFFFFFFFFFFFFFFFFFFFFFFFFFFFFFFFF AND PUSH20 0xFFFFFFFFFFFFFFFFFFFFFFFFFFFFFFFFFFFFFFFF AND DUP2 MSTORE PUSH1 0x20 ADD SWAP1 DUP2 MSTORE PUSH1 0x20 ADD PUSH0 KECCAK256 DUP2 SWAP1 SSTORE POP POP JUMP JUMPDEST PUSH0 DUP2 SWAP1 POP SWAP2 SWAP1 POP JUMP JUMPDEST PUSH2 0xC31 DUP2 PUSH2 0xC1F JUMP JUMPDEST DUP3 MSTORE POP POP JUMP JUMPDEST PUSH0 PUSH1 0x20 DUP3 ADD SWAP1 POP PUSH2 0xC4A PUSH0 DUP4 ADD DUP5 PUSH2 0xC28 JUMP JUMPDEST SWAP3 SWAP2 POP POP JUMP JUMPDEST PUSH0 DUP1 REVERT JUMPDEST PUSH0 DUP2 SWAP1 POP SWAP2 SWAP1 POP JUMP JUMPDEST PUSH2 0xC66 DUP2 PUSH2 0xC54 JUMP JUMPDEST DUP2 EQ PUSH2 0xC70 JUMPI PUSH0 DUP1 REVERT JUMPDEST POP JUMP JUMPDEST PUSH0 DUP2 CALLDATALOAD SWAP1 POP PUSH2 0xC81 DUP2 PUSH2 0xC5D JUMP JUMPDEST SWAP3 SWAP2 POP POP JUMP JUMPDEST PUSH0 PUSH1 0x20 DUP3 DUP5 SUB SLT ISZERO PUSH2 0xC9C JUMPI PUSH2 0xC9B PUSH2 0xC50 JUMP JUMPDEST JUMPDEST PUSH0 PUSH2 0xCA9 DUP5 DUP3 DUP6 ADD PUSH2 0xC73 JUMP JUMPDEST SWAP2 POP POP SWAP3 SWAP2 POP POP JUMP JUMPDEST PUSH2 0xCBB DUP2 PUSH2 0xC1F JUMP JUMPDEST DUP2 EQ PUSH2 0xCC5 JUMPI PUSH0 DUP1 REVERT JUMPDEST POP JUMP JUMPDEST PUSH0 DUP2 CALLDATALOAD SWAP1 POP PUSH2 0xCD6 DUP2 PUSH2 0xCB2 JUMP JUMPDEST SWAP3 SWAP2 POP POP JUMP JUMPDEST PUSH0 PUSH1 0x20 DUP3 DUP5 SUB SLT ISZERO PUSH2 0xCF1 JUMPI PUSH2 0xCF0 PUSH2 0xC50 JUMP JUMPDEST JUMPDEST PUSH0 PUSH2 0xCFE DUP5 DUP3 DUP6 ADD PUSH2 0xCC8 JUMP JUMPDEST SWAP2 POP POP SWAP3 SWAP2 POP POP JUMP JUMPDEST PUSH0 PUSH20 0xFFFFFFFFFFFFFFFFFFFFFFFFFFFFFFFFFFFFFFFF DUP3 AND SWAP1 POP SWAP2 SWAP1 POP JUMP JUMPDEST PUSH0 PUSH2 0xD30 DUP3 PUSH2 0xD07 JUMP JUMPDEST SWAP1 POP SWAP2 SWAP1 POP JUMP JUMPDEST PUSH2 0xD40 DUP2 PUSH2 0xD26 JUMP JUMPDEST DUP3 MSTORE POP POP JUMP JUMPDEST PUSH0 PUSH1 0x20 DUP3 ADD SWAP1 POP PUSH2 0xD59 PUSH0 DUP4 ADD DUP5 PUSH2 0xD37 JUMP JUMPDEST SWAP3 SWAP2 POP POP JUMP JUMPDEST PUSH0 PUSH2 0xD69 DUP3 PUSH2 0xD07 JUMP JUMPDEST SWAP1 POP SWAP2 SWAP1 POP JUMP JUMPDEST PUSH2 0xD79 DUP2 PUSH2 0xD5F JUMP JUMPDEST DUP2 EQ PUSH2 0xD83 JUMPI PUSH0 DUP1 REVERT JUMPDEST POP JUMP JUMPDEST PUSH0 DUP2 CALLDATALOAD SWAP1 POP PUSH2 0xD94 DUP2 PUSH2 0xD70 JUMP JUMPDEST SWAP3 SWAP2 POP POP JUMP JUMPDEST PUSH0 PUSH1 0x20 DUP3 DUP5 SUB SLT ISZERO PUSH2 0xDAF JUMPI PUSH2 0xDAE PUSH2 0xC50 JUMP JUMPDEST JUMPDEST PUSH0 PUSH2 0xDBC DUP5 DUP3 DUP6 ADD PUSH2 0xD86 JUMP JUMPDEST SWAP2 POP POP SWAP3 SWAP2 POP POP JUMP JUMPDEST PUSH2 0xDCE DUP2 PUSH2 0xC54 JUMP JUMPDEST DUP3 MSTORE POP POP JUMP JUMPDEST PUSH0 PUSH1 0x20 DUP3 ADD SWAP1 POP PUSH2 0xDE7 PUSH0 DUP4 ADD DUP5 PUSH2 0xDC5 JUMP JUMPDEST SWAP3 SWAP2 POP POP JUMP JUMPDEST PUSH0 DUP3 DUP3 MSTORE PUSH1 0x20 DUP3 ADD SWAP1 POP SWAP3 SWAP2 POP POP JUMP JUMPDEST PUSH32 0x4F776E65722063616E6E6F7420706C6179210000000000000000000000000000 PUSH0 DUP3 ADD MSTORE POP JUMP JUMPDEST PUSH0 PUSH2 0xE31 PUSH1 0x12 DUP4 PUSH2 0xDED JUMP JUMPDEST SWAP2 POP PUSH2 0xE3C DUP3 PUSH2 0xDFD JUMP JUMPDEST PUSH1 0x20 DUP3 ADD SWAP1 POP SWAP2 SWAP1 POP JUMP JUMPDEST PUSH0 PUSH1 0x20 DUP3 ADD SWAP1 POP DUP2 DUP2 SUB PUSH0 DUP4 ADD MSTORE PUSH2 0xE5E DUP2 PUSH2 0xE25 JUMP JUMPDEST SWAP1 POP SWAP2 SWAP1 POP JUMP JUMPDEST PUSH32 0x4C6F747465727920636F6E747269627574696F6E20706572696F64206973206F PUSH0 DUP3 ADD MSTORE PUSH32 0x7665722100000000000000000000000000000000000000000000000000000000 PUSH1 0x20 DUP3 ADD MSTORE POP JUMP JUMPDEST PUSH0 PUSH2 0xEBF PUSH1 0x24 DUP4 PUSH2 0xDED JUMP JUMPDEST SWAP2 POP PUSH2 0xECA DUP3 PUSH2 0xE65 JUMP JUMPDEST PUSH1 0x40 DUP3 ADD SWAP1 POP SWAP2 SWAP1 POP JUMP JUMPDEST PUSH0 PUSH1 0x20 DUP3 ADD SWAP1 POP DUP2 DUP2 SUB PUSH0 DUP4 ADD MSTORE PUSH2 0xEEC DUP2 PUSH2 0xEB3 JUMP JUMPDEST SWAP1 POP SWAP2 SWAP1 POP JUMP JUMPDEST PUSH32 0x5469636B65742066656520697320696E73756666696369656E74000000000000 PUSH0 DUP3 ADD MSTORE POP JUMP JUMPDEST PUSH0 PUSH2 0xF27 PUSH1 0x1A DUP4 PUSH2 0xDED JUMP JUMPDEST SWAP2 POP PUSH2 0xF32 DUP3 PUSH2 0xEF3 JUMP JUMPDEST PUSH1 0x20 DUP3 ADD SWAP1 POP SWAP2 SWAP1 POP JUMP JUMPDEST PUSH0 PUSH1 0x20 DUP3 ADD SWAP1 POP DUP2 DUP2 SUB PUSH0 DUP4 ADD MSTORE PUSH2 0xF54 DUP2 PUSH2 0xF1B JUMP JUMPDEST SWAP1 POP SWAP2 SWAP1 POP JUMP JUMPDEST PUSH32 0x416C7265616479207075726368617365642061207469636B6574000000000000 PUSH0 DUP3 ADD MSTORE POP JUMP JUMPDEST PUSH0 PUSH2 0xF8F PUSH1 0x1A DUP4 PUSH2 0xDED JUMP JUMPDEST SWAP2 POP PUSH2 0xF9A DUP3 PUSH2 0xF5B JUMP JUMPDEST PUSH1 0x20 DUP3 ADD SWAP1 POP SWAP2 SWAP1 POP JUMP JUMPDEST PUSH0 PUSH1 0x20 DUP3 ADD SWAP1 POP DUP2 DUP2 SUB PUSH0 DUP4 ADD MSTORE PUSH2 0xFBC DUP2 PUSH2 0xF83 JUMP JUMPDEST SWAP1 POP SWAP2 SWAP1 POP JUMP JUMPDEST PUSH32 0x48617368206D7573742062652070726F766964656420746F2062757920612074 PUSH0 DUP3 ADD MSTORE PUSH32 0x69636B6574000000000000000000000000000000000000000000000000000000 PUSH1 0x20 DUP3 ADD MSTORE POP JUMP JUMPDEST PUSH0 PUSH2 0x101D PUSH1 0x25 DUP4 PUSH2 0xDED JUMP JUMPDEST SWAP2 POP PUSH2 0x1028 DUP3 PUSH2 0xFC3 JUMP JUMPDEST PUSH1 0x40 DUP3 ADD SWAP1 POP SWAP2 SWAP1 POP JUMP JUMPDEST PUSH0 PUSH1 0x20 DUP3 ADD SWAP1 POP DUP2 DUP2 SUB PUSH0 DUP4 ADD MSTORE PUSH2 0x104A DUP2 PUSH2 0x1011 JUMP JUMPDEST SWAP1 POP SWAP2 SWAP1 POP JUMP JUMPDEST PUSH32 0x4E487B7100000000000000000000000000000000000000000000000000000000 PUSH0 MSTORE PUSH1 0x11 PUSH1 0x4 MSTORE PUSH1 0x24 PUSH0 REVERT JUMPDEST PUSH0 PUSH2 0x1088 DUP3 PUSH2 0xC1F JUMP JUMPDEST SWAP2 POP PUSH2 0x1093 DUP4 PUSH2 0xC1F JUMP JUMPDEST SWAP3 POP DUP3 DUP3 SUB SWAP1 POP DUP2 DUP2 GT ISZERO PUSH2 0x10AB JUMPI PUSH2 0x10AA PUSH2 0x1051 JUMP JUMPDEST JUMPDEST SWAP3 SWAP2 POP POP JUMP JUMPDEST PUSH32 0x596F7520617265206E6F7420746865206F776E65720000000000000000000000 PUSH0 DUP3 ADD MSTORE POP JUMP JUMPDEST PUSH0 PUSH2 0x10E5 PUSH1 0x15 DUP4 PUSH2 0xDED JUMP JUMPDEST SWAP2 POP PUSH2 0x10F0 DUP3 PUSH2 0x10B1 JUMP JUMPDEST PUSH1 0x20 DUP3 ADD SWAP1 POP SWAP2 SWAP1 POP JUMP JUMPDEST PUSH0 PUSH1 0x20 DUP3 ADD SWAP1 POP DUP2 DUP2 SUB PUSH0 DUP4 ADD MSTORE PUSH2 0x1112 DUP2 PUSH2 0x10D9 JUMP JUMPDEST SWAP1 POP SWAP2 SWAP1 POP JUMP JUMPDEST PUSH32 0x44656369646520737461676520686173206E6F7420656E646564000000000000 PUSH0 DUP3 ADD MSTORE POP JUMP JUMPDEST PUSH0 PUSH2 0x114D PUSH1 0x1A DUP4 PUSH2 0xDED JUMP JUMPDEST SWAP2 POP PUSH2 0x1158 DUP3 PUSH2 0x1119 JUMP JUMPDEST PUSH1 0x20 DUP3 ADD SWAP1 POP SWAP2 SWAP1 POP JUMP JUMPDEST PUSH0 PUSH1 0x20 DUP3 ADD SWAP1 POP DUP2 DUP2 SUB PUSH0 DUP4 ADD MSTORE PUSH2 0x117A DUP2 PUSH2 0x1141 JUMP JUMPDEST SWAP1 POP SWAP2 SWAP1 POP JUMP JUMPDEST PUSH32 0x4E487B7100000000000000000000000000000000000000000000000000000000 PUSH0 MSTORE PUSH1 0x32 PUSH1 0x4 MSTORE PUSH1 0x24 PUSH0 REVERT JUMPDEST PUSH32 0x4E487B7100000000000000000000000000000000000000000000000000000000 PUSH0 MSTORE PUSH1 0x12 PUSH1 0x4 MSTORE PUSH1 0x24 PUSH0 REVERT JUMPDEST PUSH0 PUSH2 0x11E5 DUP3 PUSH2 0xC1F JUMP JUMPDEST SWAP2 POP PUSH2 0x11F0 DUP4 PUSH2 0xC1F JUMP JUMPDEST SWAP3 POP DUP3 PUSH2 0x1200 JUMPI PUSH2 0x11FF PUSH2 0x11AE JUMP JUMPDEST JUMPDEST DUP3 DUP3 MOD SWAP1 POP SWAP3 SWAP2 POP POP JUMP JUMPDEST PUSH32 0x596F7520617265206E6F74207468652077696E6E657200000000000000000000 PUSH0 DUP3 ADD MSTORE POP JUMP JUMPDEST PUSH0 PUSH2 0x123F PUSH1 0x16 DUP4 PUSH2 0xDED JUMP JUMPDEST SWAP2 POP PUSH2 0x124A DUP3 PUSH2 0x120B JUMP JUMPDEST PUSH1 0x20 DUP3 ADD SWAP1 POP SWAP2 SWAP1 POP JUMP JUMPDEST PUSH0 PUSH1 0x20 DUP3 ADD SWAP1 POP DUP2 DUP2 SUB PUSH0 DUP4 ADD MSTORE PUSH2 0x126C DUP2 PUSH2 0x1233 JUMP JUMPDEST SWAP1 POP SWAP2 SWAP1 POP JUMP JUMPDEST PUSH32 0x4C6F74746572792072657665616C20706572696F64206973206F766572210000 PUSH0 DUP3 ADD MSTORE POP JUMP JUMPDEST PUSH0 PUSH2 0x12A7 PUSH1 0x1E DUP4 PUSH2 0xDED JUMP JUMPDEST SWAP2 POP PUSH2 0x12B2 DUP3 PUSH2 0x1273 JUMP JUMPDEST PUSH1 0x20 DUP3 ADD SWAP1 POP SWAP2 SWAP1 POP JUMP JUMPDEST PUSH0 PUSH1 0x20 DUP3 ADD SWAP1 POP DUP2 DUP2 SUB PUSH0 DUP4 ADD MSTORE PUSH2 0x12D4 DUP2 PUSH2 0x129B JUMP JUMPDEST SWAP1 POP SWAP2 SWAP1 POP JUMP JUMPDEST PUSH32 0x4E6F2068617368207375626D6974746564000000000000000000000000000000 PUSH0 DUP3 ADD MSTORE POP JUMP JUMPDEST PUSH0 PUSH2 0x130F PUSH1 0x11 DUP4 PUSH2 0xDED JUMP JUMPDEST SWAP2 POP PUSH2 0x131A DUP3 PUSH2 0x12DB JUMP JUMPDEST PUSH1 0x20 DUP3 ADD SWAP1 POP SWAP2 SWAP1 POP JUMP JUMPDEST PUSH0 PUSH1 0x20 DUP3 ADD SWAP1 POP DUP2 DUP2 SUB PUSH0 DUP4 ADD MSTORE PUSH2 0x133C DUP2 PUSH2 0x1303 JUMP JUMPDEST SWAP1 POP SWAP2 SWAP1 POP JUMP JUMPDEST PUSH32 0x416C72656164792072657665616C656400000000000000000000000000000000 PUSH0 DUP3 ADD MSTORE POP JUMP JUMPDEST PUSH0 PUSH2 0x1377 PUSH1 0x10 DUP4 PUSH2 0xDED JUMP JUMPDEST SWAP2 POP PUSH2 0x1382 DUP3 PUSH2 0x1343 JUMP JUMPDEST PUSH1 0x20 DUP3 ADD SWAP1 POP SWAP2 SWAP1 POP JUMP JUMPDEST PUSH0 PUSH1 0x20 DUP3 ADD SWAP1 POP DUP2 DUP2 SUB PUSH0 DUP4 ADD MSTORE PUSH2 0x13A4 DUP2 PUSH2 0x136B JUMP JUMPDEST SWAP1 POP SWAP2 SWAP1 POP JUMP JUMPDEST PUSH0 DUP2 SWAP1 POP SWAP2 SWAP1 POP JUMP JUMPDEST PUSH2 0x13C5 PUSH2 0x13C0 DUP3 PUSH2 0xC1F JUMP JUMPDEST PUSH2 0x13AB JUMP JUMPDEST DUP3 MSTORE POP POP JUMP JUMPDEST PUSH0 PUSH2 0x13D6 DUP3 DUP5 PUSH2 0x13B4 JUMP JUMPDEST PUSH1 0x20 DUP3 ADD SWAP2 POP DUP2 SWAP1 POP SWAP3 SWAP2 POP POP JUMP JUMPDEST PUSH32 0x596F75206172656E27742072657665616C696E672074686520636F7272656374 PUSH0 DUP3 ADD MSTORE PUSH32 0x206E756D62657221000000000000000000000000000000000000000000000000 PUSH1 0x20 DUP3 ADD MSTORE POP JUMP JUMPDEST PUSH0 PUSH2 0x143F PUSH1 0x28 DUP4 PUSH2 0xDED JUMP JUMPDEST SWAP2 POP PUSH2 0x144A DUP3 PUSH2 0x13E5 JUMP JUMPDEST PUSH1 0x40 DUP3 ADD SWAP1 POP SWAP2 SWAP1 POP JUMP JUMPDEST PUSH0 PUSH1 0x20 DUP3 ADD SWAP1 POP DUP2 DUP2 SUB PUSH0 DUP4 ADD MSTORE PUSH2 0x146C DUP2 PUSH2 0x1433 JUMP JUMPDEST SWAP1 POP SWAP2 SWAP1 POP JUMP INVALID LOG2 PUSH5 0x6970667358 0x22 SLT KECCAK256 PUSH26 0x826CF7D8822D93A952F792138BDD34CDEDF2477FF4F6CC67BD59 0xC4 DELEGATECALL 0xB8 0x2D CALLCODE PUSH5 0x736F6C6343 STOP ADDMOD BYTE STOP CALLER "
				},
				"gasEstimates": {
					"creation": {
						"codeDepositCost": "1057800",
						"executionCost": "infinite",
						"totalCost": "infinite"
					},
					"external": {
						"claimPrize()": "infinite",
						"decideEndTime()": "2426",
						"finalRandomNumber()": "2448",
						"getBalance()": "379",
						"pickWinner()": "infinite",
						"purchaseEndTime()": "2514",
						"purchaseTicket(bytes32)": "infinite",
						"revealNumber(uint256)": "infinite",
						"revealedNumbers(address)": "2824",
						"ticketFee()": "2469",
						"userRNHashes(address)": "2825",
						"users(uint256)": "5054",
						"winner()": "2574"
					}
				},
				"methodIdentifiers": {
					"claimPrize()": "70740ac9",
					"decideEndTime()": "09736bc3",
					"finalRandomNumber()": "11676fed",
					"getBalance()": "12065fe0",
					"pickWinner()": "5d495aea",
					"purchaseEndTime()": "2f0e23fb",
					"purchaseTicket(bytes32)": "129a4202",
					"revealNumber(uint256)": "fe7d567d",
					"revealedNumbers(address)": "872fd939",
					"ticketFee()": "a0994c47",
					"userRNHashes(address)": "4018f256",
					"users(uint256)": "365b98b2",
					"winner()": "dfbf53ae"
				}
			},
			"storageLayout": {
				"storage": [
					{
						"astId": 10,
						"contract": "lottery.sol:Lottery",
						"label": "users",
						"offset": 0,
						"slot": "0",
						"type": "t_array(t_address_payable)dyn_storage"
					},
					{
						"astId": 12,
						"contract": "lottery.sol:Lottery",
						"label": "admin",
						"offset": 0,
						"slot": "1",
						"type": "t_address_payable"
					},
					{
						"astId": 14,
						"contract": "lottery.sol:Lottery",
						"label": "winner",
						"offset": 0,
						"slot": "2",
						"type": "t_address_payable"
					},
					{
						"astId": 16,
						"contract": "lottery.sol:Lottery",
						"label": "ticketFee",
						"offset": 0,
						"slot": "3",
						"type": "t_uint256"
					},
					{
						"astId": 18,
						"contract": "lottery.sol:Lottery",
						"label": "purchaseEndTime",
						"offset": 0,
						"slot": "4",
						"type": "t_uint256"
					},
					{
						"astId": 20,
						"contract": "lottery.sol:Lottery",
						"label": "decideEndTime",
						"offset": 0,
						"slot": "5",
						"type": "t_uint256"
					},
					{
						"astId": 24,
						"contract": "lottery.sol:Lottery",
						"label": "userRNHashes",
						"offset": 0,
						"slot": "6",
						"type": "t_mapping(t_address,t_bytes32)"
					},
					{
						"astId": 28,
						"contract": "lottery.sol:Lottery",
						"label": "revealedNumbers",
						"offset": 0,
						"slot": "7",
						"type": "t_mapping(t_address,t_uint256)"
					},
					{
						"astId": 30,
						"contract": "lottery.sol:Lottery",
						"label": "finalRandomNumber",
						"offset": 0,
						"slot": "8",
						"type": "t_uint256"
					}
				],
				"types": {
					"t_address": {
						"encoding": "inplace",
						"label": "address",
						"numberOfBytes": "20"
					},
					"t_address_payable": {
						"encoding": "inplace",
						"label": "address payable",
						"numberOfBytes": "20"
					},
					"t_array(t_address_payable)dyn_storage": {
						"base": "t_address_payable",
						"encoding": "dynamic_array",
						"label": "address payable[]",
						"numberOfBytes": "32"
					},
					"t_bytes32": {
						"encoding": "inplace",
						"label": "bytes32",
						"numberOfBytes": "32"
					},
					"t_mapping(t_address,t_bytes32)": {
						"encoding": "mapping",
						"key": "t_address",
						"label": "mapping(address => bytes32)",
						"numberOfBytes": "32",
						"value": "t_bytes32"
					},
					"t_mapping(t_address,t_uint256)": {
						"encoding": "mapping",
						"key": "t_address",
						"label": "mapping(address => uint256)",
						"numberOfBytes": "32",
						"value": "t_uint256"
					},
					"t_uint256": {
						"encoding": "inplace",
						"label": "uint256",
						"numberOfBytes": "32"
					}
				}
			},
			"userdoc": {
				"kind": "user",
				"methods": {},
				"version": 1
			}
		}
	}
}